:100000000C9435010C9466010C9466010C94660105
:100010000C9466010C9466010C9466010C946601C4
:100020000C9466010C9466010C9466010C946601B4
:100030000C9466010C9466010C9466010C946601A4
:100040000C9466010C9466010C9466010C94660194
:100050000C9466010C9466010C9466010C947E036A
:100060000C9466010C9448030C941E030C946601D6
:100070000C9466010C9466010C9466010C94660164
:100080000C9466010C9466010C9466010C94660154
:100090000C9466010C9466010C9466010C94660144
:1000A0000C9466010C9466010C9466010C94660134
:1000B0000C9466010C9466010C9466010C94660124
:1000C0000C9466010C9466010C9466010C94660114
:1000D0000C9466010C9466010C9466010C94660104
:1000E0000C9466010C94BD010C9468050C94B00549
:1000F0000C946C050C947F050C9495050C94900160
:100100000C9483050C94EE010C949B050C947505DE
:100110000C9460050C9487050C946F050C94C60430
:100120000C94C1040C948D050C94CC010C947302B6
:100130000C9479050C9464050C9491050C9426029A
:100140000C94E0010C949F05000020002300260081
:1001500029002C002F0032000001000003010601DD
:10016000090100000A0B02090C0D0E080703040127
:10017000000000000000000000000000000000007F
:10018000000000000000000000000000000012114C
:10019000100000000000000000000000000000004F
:1001A00000000000000000000000220025002800E0
:1001B0002B002E003100340002010000050108016F
:1001C0000B0100002100240027002A002D00300030
:1001D000330001010000040107010A0105050505BE
:1001E000070508080808020202020A0A08080404AF
:1001F00004040101010101010101030303030303DD
:100200000303040707070C0C0C0C0C0C0C0C02026B
:10021000020206060606060606060B0B0B0B0B0B68
:100220000B0B0102102020080810204010204080F5
:1002300002010201080402010102040810204080AA
:100240008040201008040201800402018040201038
:100250000804020108040201010204081020408081
:100260000102040810204080B00511241FBECFEF0A
:10027000D1E2DEBFCDBF00E00CBF23E0AAE2B2E0D6
:1002800001C01D92A431B207E1F712E0A0E0B2E094
:10029000E4E6F0E100E00BBF02C007900D92AA3245
:1002A000B107D9F711E0C5E3D1E000E006C021971E
:1002B0000109802FFE010E941206C433D10780E09D
:1002C0000807A9F70E94C8030C9430080C9400009A
:1002D000CF93DF9390E0FC01EE5DFD4F24918452BB
:1002E0009E4FFC0184918823C1F090E0880F991FF4
:1002F000FC01EE53FE4FC591D491FC01E855FE4F31
:10030000A591B4919FB7F8948881E22FE0958E2350
:1003100088838C91E823EC939FBFDF91CF91089560
:10032000AF92BF92CF92DF92EF92FF920F931F9303
:10033000CF93DF936C017B018B01040F151FEB0141
:100340005E01AE18BF08C017D10759F06991D601F8
:10035000ED91FC910190F081E02DC6011995892B5A
:1003600079F7C501DF91CF911F910F91FF90EF9029
:10037000DF90CF90BF90AF900895FC01538D448DD6
:10038000252F30E0842F90E0821B930B541710F040
:10039000CF96089501970895FC01918D828D98174D
:1003A00061F0A28DAE0FBF2FB11D5D968C91928D25
:1003B0009F5F9F73928F90E008958FEF9FEF089556
:1003C000FC01918D828D981731F0828DE80FF11D1F
:1003D000858D90E008958FEF9FEF0895FC01918D3A
:1003E000228D892F90E0805C9F4F821B91098F7333
:1003F0009927089583E792E00E94EE0121E0892B7E
:1004000009F420E0822F0895FC01A48DA80FB92FD4
:10041000B11DA35ABF4F2C91848D90E001968F732C
:100420009927848FA689B7892C93A089B1898C914B
:10043000837080648C93938D848D981306C002889A
:10044000F389E02D80818F7D80830895EF92FF9264
:100450000F931F93CF93DF93EC0181E0888F9B8DE7
:100460008C8D98131AC0E889F989808185FF15C0A1
:100470009FB7F894EE89FF896083E889F9898081C4
:100480008370806480839FBF81E090E0DF91CF9193
:100490001F910F91FF90EF900895F62E0B8D10E0B5
:1004A0000F5F1F4F0F731127E02E8C8D8E110CC024
:1004B0000FB607FCFACFE889F989808185FFF5CF6F
:1004C000CE010E940402F1CFEB8DEC0FFD2FF11D48
:1004D000E35AFF4FF0829FB7F8940B8FEA89FB89AC
:1004E00080818062CFCFCF93DF93EC01888D88230A
:1004F000B9F0AA89BB89E889F9898C9185FD03C087
:10050000808186FD0DC00FB607FCF7CF8C9185FF6B
:10051000F2CF808185FFEDCFCE010E940402E9CFAA
:10052000DF91CF91089580E090E0892B29F00E941F
:10053000FA0181110E94000080E090E0892B49F0CF
:1005400080E090E0892B29F00E94000081110E9438
:10055000000080E090E0892B49F080E090E0892B5A
:1005600029F00E94000081110E94000080E090E0CC
:10057000892B49F080E090E0892B29F00E9400004F
:1005800081110C94000008953FB7F89480912F02D8
:1005900090913002A0913102B091320226B5A89B11
:1005A00005C02F3F19F00196A11DB11D3FBFBA2F05
:1005B000A92F982F8827BC01CD01620F711D811DC5
:1005C000911D42E0660F771F881F991F4A95D1F74A
:1005D0000895FC0101900020E9F73197AF01481B15
:1005E000590BBC0183E792E00C9490010F931F9389
:1005F000CF93DF93EC0188819981009759F02A818C
:100600003B812617370730F081E0DF91CF911F91B2
:100610000F9108958B016F5F7F4F0E943F070097F6
:1006200059F0998388831B830A832C813D81232B76
:1006300059F7FC011082E8CF80E0E7CF1F920F92BC
:100640000FB60F9211240BB60F922F933F934F9337
:100650005F936F937F938F939F93AF93BF93EF932A
:10066000FF9383E792E00E940402FF91EF91BF9114
:10067000AF919F918F917F916F915F914F913F913A
:100680002F910F900BBE0F900FBE0F901F901895DB
:100690001F920F920FB60F9211240BB60F922F9349
:1006A0008F939F93EF93FF93E0918302F0918402E5
:1006B0008081E0918902F0918A0282FD1DC09081C3
:1006C00080918C028F5F8F7320918D02821741F091
:1006D000E0918C02F0E0ED58FD4F958F80938C02F5
:1006E000FF91EF919F918F912F910F900BBE0F90E3
:1006F0000FBE0F901F9018958081F2CF1F920F921E
:100700000FB60F9211242F933F938F939F93AF9324
:10071000BF9380912B0290912C02A0912D02B09159
:100720002E0230912A0223E0230F2D3758F501962F
:10073000A11DB11D20932A0280932B0290932C02BD
:10074000A0932D02B0932E0280912F02909130023F
:10075000A0913102B09132020196A11DB11D80938A
:100760002F0290933002A0933102B0933202BF91D6
:10077000AF919F918F913F912F910F900FBE0F904E
:100780001F90189526E8230F0296A11DB11DD2CF08
:10079000CF93DF93CDB7DEB72E970FB6F894DEBFB9
:1007A0000FBECDBF789484B5826084BD84B581606E
:1007B00084BD85B5826085BD85B5816085BD80912C
:1007C0006E00816080936E001092810080918100A4
:1007D000826080938100809181008160809381009C
:1007E000809180008160809380008091B10084605E
:1007F0008093B1008091B00081608093B0008091BF
:10080000910082608093910080919100816080933B
:100810009100809190008160809390008091A10070
:1008200082608093A1008091A10081608093A100EB
:100830008091A00081608093A0008091210182605E
:100840008093210180912101816080932101809119
:10085000200181608093200180917A0084608093E0
:100860007A0080917A00826080937A0080917A0089
:10087000816080937A0080917A00806880937A000A
:100880001092C100E0918302F091840282E08083A3
:10089000E0917F02F09180021082E0918102F0915C
:1008A00082028FEC808310928B02E0918702F0919C
:1008B000880286E08083E0918502F0918602808143
:1008C00080618083E0918502F0918602808188605A
:1008D0008083E0918502F091860280818068808328
:1008E000E0918502F091860280818F7D808316E100
:1008F000812F0E9468011F5F1633D1F78DE00E949F
:10090000680188E192E00E94E90282E292E00E949E
:10091000E9028E010F5F1F4F23E3E22E22E0F22E49
:10092000D70130E020E0F901E858FE4F8491F90149
:10093000E85CFD4F4491F901EE50FE4F94919923EC
:1009400009F401C1882311F181508231F8F4E82FB4
:10095000F0E08827E155FB4F8F4F0C941206680595
:100960006C05C10460056405C6046F05750579054D
:100970007F05830587058D059105C60495059B05B3
:100980009F05809180008F7780938000E92FF0E0B1
:10099000EE0FFF1FE85BFE4F85919491FC01808173
:1009A000482361E050E009F460E0862F952F8D9395
:1009B0009D932F5F3F4F2032310509F0B4CF1A8647
:1009C00019861C861B861E861D8664E070E0CE019B
:1009D00009960E94F60229853A858111B7C0211532
:1009E000310519F0C9010E94B6061A8619861E86BD
:1009F0001D861C861B864AE0B801F7018191919102
:100A00007F010E94DD05F80101900020E9F7319790
:100A1000E01BF10BB1F0CD84DE84CE0EDF1EB601FB
:100A2000CE0109960E94F602882359F029853A855D
:100A30008D859E85B801820F931F0E942908DE864E
:100A4000CD86F3E7EF16F2E0FF06A9F64D855E8549
:100A500069857A8583E792E00E94900182E292E0C4
:100A60000E94E90289859A85009711F00E94B606D6
:100A70000E94C4024B015C0180EDC82E87E0D82E95
:100A8000E12CF12C0E94C402681979098A099B099A
:100A9000683E734081059105A8F321E0C21AD10890
:100AA000E108F10888EE880E83E0981EA11CB11CB5
:100AB000C114D104E104F10429F70E9493022CCF60
:100AC000809180008F7D60CF80918000877F5CCF98
:100AD00084B58F7784BD5ACF84B58F7DFBCF80914D
:100AE000B0008F778093B00051CF8091B0008F7DA0
:100AF000F9CF809190008F778093900047CF8091BD
:100B000090008F7DF9CF80919000877FF5CF809105
:100B1000A0008F778093A00039CF8091A0008F7DB7
:100B2000F9CF8091A000877FF5CF809120018F774A
:100B3000809320012BCF809120018F7DF9CF809170
:100B40002001877FF5CF90E080E031CF84E090E016
:100B50009E878D8765E272E0C9010E9429084BCF0C
:100B6000E3E7F2E01382128288EE93E0A0E0B0E0C7
:100B700084839583A683B7838AE092E09183808300
:100B800085EC90E09587848784EC90E09787868752
:100B900080EC90E0918B808B81EC90E0938B828B4A
:100BA00082EC90E0958B848B86EC90E0978B868B23
:100BB000118E128E138E148E0895BB274A3031F495
:100BC000992322F4BDE2909581959F4F0C94E905FD
:100BD000BB27FB015527AA27880F991FAA1FA41717
:100BE00010F0A41B83955051B9F7A05DAA3308F00B
:100BF000A95DA193009779F7B111B1931192CB013F
:100C00000C940206DC01FC01672F71917723E1F758
:100C1000329704C07C916D9370836291AE17BF07C9
:100C2000C8F30895EE0FFF1F881F8BBF0790F69142
:100C3000E02D19940F931F93CF93DF93823091058A
:100C400010F482E090E0E0911203F091130330E0A1
:100C500020E0B0E0A0E0309799F42115310509F4C7
:100C60004AC0281B390B24303105D8F58A819B8175
:100C70006115710589F1FB0193838283FE0111C027
:100C8000408151810281138148175907E0F04817CC
:100C9000590799F4109761F012960C9312971396D6
:100CA0001C933296CF01DF91CF911F910F91089540
:100CB0000093120310931303F4CF2115310551F063
:100CC0004217530738F0A901DB019A01BD01DF018A
:100CD000F801C1CFEF01F9CF909313038093120372
:100CE000CDCFFE01E20FF31F819391932250310982
:100CF00039832883D7CF2091100330911103232B00
:100D000041F42091020230910302309311032093A9
:100D1000100320910002309101022115310541F4A8
:100D20002DB73EB74091040250910502241B350BAC
:100D3000E0911003F0911103E217F307A0F42E1BCA
:100D40003F0B2817390778F0AC014E5F5F4F24172F
:100D5000350748F04E0F5F1F509311034093100367
:100D6000819391939FCFF0E0E0E09CCFCF93DF930E
:100D70000097E9F0FC01329713821282A0911203CE
:100D8000B0911303ED0130E020E01097A1F4208131
:100D90003181820F931F2091100330911103281786
:100DA000390709F061C0F0931103E0931003DF915C
:100DB000CF910895EA01CE17DF07E8F54A815B81FC
:100DC0009E0141155105B1F7E901FB83EA83499181
:100DD0005991C40FD51FEC17FD0761F480819181F3
:100DE0000296840F951FE9019983888382819381FC
:100DF0009B838A83F0E0E0E012968D919C9113979B
:100E00000097B9F52D913C911197CD010296820F73
:100E1000931F20911003309111032817390739F6D9
:100E2000309751F51092130310921203B0931103EF
:100E3000A0931003BCCFD383C28340815181840F20
:100E4000951FC817D90761F44E5F5F4F888199815C
:100E5000480F591F518340838A819B8193838283EA
:100E60002115310509F0B0CFF0931303E09312037D
:100E70009ECFFD01DC01C0CF13821282D7CF4F92EB
:100E80005F926F927F928F929F92AF92BF92CF921A
:100E9000DF92EF92FF920F931F93CF93DF938C011A
:100EA000009799F4CB01DF91CF911F910F91FF90A3
:100EB000EF90DF90CF90BF90AF909F908F907F90FA
:100EC0006F905F904F900C941A06FC01E60FF71F8D
:100ED0009C0122503109E217F30708F4AEC0D90192
:100EE000CD91DC911197C617D70720F1C530D105F8
:100EF00078F0CE0104978617970750F0C61BD70BE2
:100F00002297C193D1936D937C93CF010E94B60633
:100F1000C801DF91CF911F910F91FF90EF90DF906B
:100F2000CF90BF90AF909F908F907F906F905F9089
:100F30004F9008955B01AC1ABD0A4C018C0E9D1EAA
:100F4000A0911203B0911303512C412CF12CE12CF0
:100F5000109731F580911003909111038815990530
:100F600009F05CC04616570608F058C08091000290
:100F700090910102009741F48DB79EB74091040211
:100F800050910502841B950BE817F90708F055C02E
:100F9000F0931103E0931003F90171836083B8CFDC
:100FA0008D919C91119712966C90129713967C904C
:100FB0001397A815B90559F56C0142E0C40ED11C70
:100FC000CA14DB0420F1AC014A195B09DA0112965C
:100FD000159780F06282738251834083D9016D93AB
:100FE0007C93E114F10471F0D7011396FC93EE9316
:100FF00012978ECF22968C0F9D1FF90191838083CB
:10100000F301EFCFF0931303E093120381CF48165F
:10101000590608F42C017D01D3019ACFCB010E941F
:101020001A067C01009749F0AE01B8010E94200821
:10103000C8010E94B60687016BCF10E000E068CFC0
:10104000FB01DC0102C001900D9241505040D8F7E5
:101050000895FB01DC0101900D920020E1F7089555
:04106000F894FFCF32
:101064000000140380000000000026029001BD016E
:101074007302EE01CC01E0014C445220524541443C
:0A10840059000D0A004C44523B00D5
:00000001FF
