:100000000C9436010C9467010C9467010C94670101
:100010000C9467010C9467010C9467010C946701C0
:100020000C9467010C9467010C9467010C946701B0
:100030000C9467010C94E8050C9467010C9467011B
:100040000C9467010C9467010C9467010C94670190
:100050000C9467010C9467010C9467010C94A8063A
:100060000C9467010C9472060C9448060C9467017A
:100070000C9467010C9467010C9467010C94670160
:100080000C9467010C9467010C9467010C94670150
:100090000C9467010C9467010C9467010C94670140
:1000A0000C9467010C9467010C9467010C94670130
:1000B0000C9467010C9467010C9467010C94670120
:1000C0000C9467010C9467010C9467010C94670110
:1000D0000C9467010C9467010C9467010C94670100
:1000E0000C9467010C94E7040C9410050C94020521
:1000F0000C9468080C9466040C94BF030C94F004F0
:100100000C941A050C94DF040C94D3030C940C0586
:100110000C9416050C94DB040C94E1030C94F40489
:100120000C9408050C9419040C94D5040C94FE044A
:100130000C9483030C94E3040C94EA040C941505CA
:100140000C94FA040C94B003000020002300260055
:1001500029002C002F0032000001000003010601DD
:10016000090100000A0B02090C0D0E080703040127
:10017000000000000000000000000000000000007F
:10018000000000000000000000000000000012114C
:10019000100000000000000000000000000000004F
:1001A00000000000000000000200002200250028DE
:1001B000002B002E00310034000201000005010870
:1001C000010B0100002100240027002A002D00302F
:1001D00000330001010000040107010A01050505C3
:1001E00005070508080808020202020A0A080804AE
:1001F00004040401010101010101010303030303DC
:10020000030303040707070C0C0C0C0C0C0C0C026A
:1002100002020206060606060606060B0B0B0B0B71
:100220000B0B0B010210202008081020401020406A
:1002300080020102010804020101020408102040AA
:1002400080804020100804020180040201804020C8
:1002500010080402010804020101020408102040F1
:1002600080010204081020408000680811241FBE8D
:10027000CFEFD1E2DEBFCDBF00E00CBF12E0A0E0C7
:10028000B2E0E0ECF1E100E00BBF02C007900D929C
:10029000A833B107D9F722E0A8E3B2E001C01D926C
:1002A000AF3FB207E1F711E0C6E3D1E000E006C0DE
:1002B00021970109802FFE010E94B408C533D107A0
:1002C00080E00807A9F70E94F2060C94DE080C945F
:1002D0000000E9E5F2E02491E3E1F2E08491882373
:1002E00099F090E0880F991FFC01ED53FE4FA59106
:1002F000B491FC01E755FE4F859194918FB7F89426
:10030000EC91E22BEC938FBF08950F931F93CF9343
:100310008C0180911802863331F08F3FA9F1CF9183
:100320001F910F910895E8EAF1E0C491C7FDF7CF5E
:100330000E946901CC2309F4A7C0C23009F4A4C00B
:10034000980150E040E060E072E18AE790E00E94AE
:1003500095082150310941095109C13009F4D7C02C
:10036000C33009F43DC1C43009F481C1C53009F47A
:1003700057C0C23009F49EC10CF094C1CC2309F4DB
:10038000B0C1C13061F6C9C086E380931802E8EAC3
:10039000F1E0C4918C2FCF3F09F4C1CFC23009F4F2
:1003A000D1C058F4CC2309F456C0C13009F483C03D
:1003B00087FDB5CF0E946901C0CFC43009F42BC1BD
:1003C00008F4E2C0C530A1F710922001109221017B
:1003D00080912101886080932101809121018160B9
:1003E00080932101E3E1F2E0E491F0E0EE0FFF1FE2
:1003F000E755FE4F85919491E9E5F2E0E491E093B1
:10040000DF020E946901980150E040E060E072E183
:100410008AE790E00E94950821503109410951096D
:1004200080912101887F816080932101309329018F
:10043000209328018FEF9FEFDC018093E7029093D8
:10044000E802A093E902B093EA028091730082600F
:100450008093730064CF14BC15BC84B5826084BDE6
:1004600085B5816085BDE3E1F2E0E491F0E0EE0F57
:10047000FF1FE755FE4F85919491E9E5F2E0E49185
:10048000E093E6020E946901980150E040E068E4D0
:1004900078EE81E090E00E949508215031094109F1
:1004A0005109CC2309F419C18091B100887F84607F
:1004B0008093B1005ECF10928000109281008091F5
:1004C00081008860809381008091810081608093A9
:1004D0008100E3E1F2E0E491F0E0EE0FFF1FE75569
:1004E000FE4F85919491E9E5F2E0E491E093E50215
:1004F0000E946901980150E040E060E072E18AE703
:1005000090E00E94950821503109410951098091DC
:100510008100887F816080938100309389002093DF
:1005200088008FEF9FEFDC018093F7029093F80231
:10053000A093F902B093FA0280916F0082608093D9
:100540006F00EDCE1092B0001092B1008091B0001B
:1005500082608093B0008091B10081608093B1008F
:10056000E3E1F2E0E491F0E0EE0FFF1FE755FE4F0C
:10057000859194919093E4028093E302E9E5F2E09F
:10058000E491E093E2027ECF1092900010929100ED
:1005900080919100886080939100809191008160AA
:1005A00080939100E3E1F2E0E491F0E0EE0FFF1FB1
:1005B000E755FE4F85919491E9E5F2E0E491E093EF
:1005C000E1020E946901980150E040E060E072E1C0
:1005D0008AE790E00E9495082150310941095109AC
:1005E00080919100887F8160809391003093990081
:1005F000209398008FEF9FEFDC018093EF029093A0
:10060000F002A093F102B093F20280917100826037
:100610008093710084CE1092A0001092A10080916E
:10062000A10088608093A1008091A10081608093E7
:10063000A100E3E1F2E0E491F0E0EE0FFF1FE755E7
:10064000FE4F85919491E9E5F2E0E491E093E002B8
:100650000E946901980150E040E060E072E18AE7A1
:1006600090E00E949508215031094109510980917B
:10067000A100887F81608093A1003093A90020931E
:10068000A8008FEF9FEFDC018093EB029093EC02C8
:10069000A093ED02B093EE0280917200826080938D
:1006A00072003DCEC43049F30CF4A0CFC53009F43C
:1006B000BDCE35CE2093B3008FEF9FEFDC0180934A
:1006C000F3029093F402A093F502B093F6028091A6
:1006D000700082608093700022CE85B5887F836031
:1006E00085BD27BD8FEF9FEFDC018093FB029093C8
:1006F000FC02A093FD02B093FE0280916E00826026
:1007000080936E000CCEAF92BF92CF92DF92EF92A9
:10071000FF920F931F93CF93DF936C017B018B01AB
:10072000040F151FEB015E01AE18BF08C017D107FB
:1007300059F06991D601ED91FC910190F081E02D85
:10074000C6011995892B79F7C501DF91CF911F91CA
:100750000F91FF90EF90DF90CF90BF90AF900895F2
:10076000FC01538D448D252F30E0842F90E0821BB7
:10077000930B541710F0CF96089501970895FC013C
:10078000918D828D981761F0A28DAE0FBF2FB11D94
:100790005D968C91928D9F5F9F73928F90E00895EC
:1007A0008FEF9FEF0895FC01918D828D981731F0A6
:1007B000828DE80FF11D858D90E008958FEF9FEFFA
:1007C0000895FC01918D228D892F90E0805C9F4FD0
:1007D000821B91098F739927089581E492E00E940A
:1007E000E10321E0892B09F420E0822F0895FC0128
:1007F000A48DA80FB92FB11DA35ABF4F2C91848D82
:1008000090E001968F739927848FA689B7892C93DE
:10081000A089B1898C91837080648C93938D848D31
:10082000981306C00288F389E02D80818F7D808334
:100830000895EF92FF920F931F93CF93DF93EC01F4
:1008400081E0888F9B8D8C8D98131AC0E889F98977
:10085000808185FF15C09FB7F894EE89FF8960837A
:10086000E889F98980818370806480839FBF81E0FB
:1008700090E0DF91CF911F910F91FF90EF9008953D
:10088000F62E0B8D10E00F5F1F4F0F731127E02E18
:100890008C8D8E110CC00FB607FCFACFE889F98950
:1008A000808185FFF5CFCE010E94F703F1CFEB8D5C
:1008B000EC0FFD2FF11DE35AFF4FF0829FB7F89424
:1008C0000B8FEA89FB8980818062CFCFCF93DF9342
:1008D000EC01888D8823B9F0AA89BB89E889F98958
:1008E0008C9185FD03C0808186FD0DC00FB607FC8D
:1008F000F7CF8C9185FFF2CF808185FFEDCFCE01C0
:100900000E94F703E9CFDF91CF91089580E090E056
:10091000892B29F00E94ED0381110E94000080E0E4
:1009200090E0892B49F080E090E0892B29F00E942B
:10093000000081110E94000080E090E0892B49F0C6
:1009400080E090E0892B29F00E94000081110E9434
:10095000000080E090E0892B49F080E090E0892B56
:1009600029F00E94000081110C940000089581502C
:10097000823108F05AC0E82FF0E08827ED53FB4F92
:100980008F4F0C94B408E304E704D504DB04DF04C0
:100990001505EA04F004F404FA04FE04020508054F
:1009A0000C051505100516051A05809180008F7736
:1009B000809380000895809180008F7DF9CF809191
:1009C0008000877FF5CF84B58F7784BD089584B587
:1009D0008F7DFBCF8091B0008F778093B00008951A
:1009E0008091B0008F7DF9CF809190008F778093B8
:1009F00090000895809190008F7DF9CF80919000B4
:100A0000877FF5CF8091A0008F778093A000089515
:100A10008091A0008F7DF9CF8091A000877FF5CFD6
:100A2000809120018F77809320010895809120018B
:100A30008F7DF9CF80912001877FF5CF1F93CF93D2
:100A4000DF93282F30E0F901EE59FE4F8491F90130
:100A5000ED5DFD4FD491F901E352FE4FC491CC23DB
:100A6000A9F0162F81110E94B704EC2FF0E0EE0FD1
:100A7000FF1FE755FE4FA591B4918FB7F894EC9105
:100A8000111108C0D095DE23DC938FBFDF91CF9189
:100A90001F910895DE2BF8CF9091180289130DC095
:100AA000E8EAF1E0E4919FEF90931802E230E1F080
:100AB00038F4EE2381F0E13089F060E00C941E05FB
:100AC000E43049F110F1E530C1F7909173009D7F5A
:100AD00090937300F2CF10926E00EFCF90916F0061
:100AE0009D7F90936F00E9CF909170009D7F9093D0
:100AF000700091E09093B0009091B100987F946065
:100B00009093B1001092B300D8CF909171009D7F67
:100B100090937100D2CF909172009D7F909372005C
:100B2000CCCF3FB7F89480913D0290913E02A091C6
:100B30003F02B091400226B5A89B05C02F3F19F097
:100B40000196A11DB11D3FBFBA2FA92F982F88274D
:100B5000BC01CD01620F711D811D911D42E0660F28
:100B6000771F881F991F4A95D1F708958F929F92FA
:100B7000AF92BF92CF92DF92EF92FF924B015C0156
:100B80000E9491056B017C010E9491056C197D0901
:100B90008E099F09683E734081059105A8F321E005
:100BA000821A9108A108B10888EEC80E83E0D81E09
:100BB000E11CF11C81149104A104B10429F7FF90F8
:100BC000EF90DF90CF90BF90AF909F908F9008955F
:100BD0001F920F920FB60F9211240BB60F922F9304
:100BE0003F934F935F936F937F938F939F93AF93B5
:100BF000BF93EF93FF938091F3029091F402A09141
:100C0000F502B091F602892B8A2B8B2BE1F19091A2
:100C1000E202E091E302F091E4028081892780837F
:100C20008091F3029091F402A091F502B091F60246
:100C3000181619061A061B069CF48091F30290916F
:100C4000F402A091F502B091F6020197A109B10951
:100C50008093F3029093F402A093F502B093F6020E
:100C6000FF91EF91BF91AF919F918F917F916F9184
:100C70005F914F913F912F910F900BBE0F900FBE40
:100C80000F901F901895809118020E944C05E8CF94
:100C90001F920F920FB60F9211240BB60F922F9343
:100CA0003F934F935F936F937F938F939F93AF93F4
:100CB000BF93EF93FF9381E492E00E94F703FF91CB
:100CC000EF91BF91AF919F918F917F916F915F91C4
:100CD0004F913F912F910F900BBE0F900FBE0F9031
:100CE0001F9018951F920F920FB60F9211240BB6FA
:100CF0000F922F938F939F93EF93FF93E091510265
:100D0000F09152028081E0915702F091580282FDE9
:100D10001DC0908180915A028F5F8F7320915B027A
:100D2000821741F0E0915A02F0E0EF5BFD4F958FA2
:100D300080935A02FF91EF919F918F912F910F9085
:100D40000BBE0F900FBE0F901F9018958081F2CFB1
:100D50001F920F920FB60F9211242F933F938F93F0
:100D60009F93AF93BF938091390290913A02A091E3
:100D70003B02B0913C023091380223E0230F2D3723
:100D800058F50196A11DB11D2093380280933902B8
:100D900090933A02A0933B02B0933C0280913D02B3
:100DA00090913E02A0913F02B09140020196A11D98
:100DB000B11D80933D0290933E02A0933F02B093F9
:100DC0004002BF91AF919F918F913F912F910F90D2
:100DD0000FBE0F901F90189526E8230F0296A11DB5
:100DE000B11DD2CF789484B5826084BD84B5816012
:100DF00084BD85B5826085BD85B5816085BD8091E6
:100E00006E00816080936E0010928100809181005D
:100E10008260809381008091810081608093810055
:100E2000809180008160809380008091B100846017
:100E30008093B1008091B00081608093B000809178
:100E400091008260809391008091910081608093F5
:100E50009100809190008160809390008091A1002A
:100E600082608093A1008091A10081608093A100A5
:100E70008091A00081608093A00080912101826018
:100E800080932101809121018160809321018091D3
:100E9000200181608093200180917A00846080939A
:100EA0007A0080917A00826080937A0080917A0043
:100EB000816080937A0080917A00806880937A00C4
:100EC0001092C1000E946901E0915102F09152021A
:100ED00082E08083E0914D02F0914E021082E09119
:100EE0004F02F09150028FEC808310925902E091F2
:100EF0005502F091560286E08083E0915302F09112
:100F00005402808180618083E0915302F091540209
:100F1000808188608083E0915302F0915402808147
:100F200080688083E0915302F091540280818F7D2C
:100F300080839FE6692E91E0792E20E3A22E22E0A5
:100F4000B22E3AEE832E31E0932E4424439446E0B1
:100F5000542EF3018491F501D491F401C491CC2372
:100F600099F081110E94B704EC2FF0E0EE0FFF1F03
:100F7000E85BFE4FA591B4918C91D82329F0809124
:100F8000DE0284258093DE028091DE02882309F44C
:100F90006DC049E050E06BE272E081E492E00E94B3
:100FA000830342E050E065E372E081E492E00E9456
:100FB000830368EE73E080E090E00E94B60581E470
:100FC00092E00E94E103181619060CF04FC081E46C
:100FD00092E00E94BF03009709F477C00197589EE2
:100FE0008001599E100D112400501E4FC4EFD1E016
:100FF000C80106967C01C0FD3CC0CE010E9485015F
:101000006801F6018081F2E0CF0ED11C61E00E9400
:101010001E0565E070E080E090E00E94B605EC14EB
:10102000FD0479F72196CC3B82E0D80721F7C0FD7B
:1010300036C0CE010E9485016801F6018081F2E090
:10104000CF0ED11C61E00E941E0565E070E080E0DB
:1010500090E00E94B605EC14FD0479F72197C43F97
:1010600081E0D80721F786E30E944C050E948604A0
:1010700070CFCE010E9485016801F6018081F2E007
:10108000CF0ED11C60E00E941E0565E070E080E09C
:1010900090E00E94B605CE14DF0479F7C3CFCE01ED
:1010A0000E9485016801F6018081F2E0CF0ED11C1B
:1010B00060E00E941E0565E070E080E090E00E9424
:1010C000B605CE14DF0479F7C9CF1092DE02CECF79
:1010D000E1E4F2E01382128288EE93E0A0E0B0E057
:1010E00084839583A683B7838DE192E09183808387
:1010F00085EC90E09587848784EC90E097878687DD
:1011000080EC90E0918B808B81EC90E0938B828BD4
:1011100082EC90E0958B848B86EC90E0978B868BAD
:10112000118E128E138E148E0895052E97FB1EF4C9
:1011300000940E94AC0857FD07D00E94BC0807FC31
:1011400003D04EF40C94AC08509540953095219501
:101150003F4F4F4F5F4F08959095809570956195E3
:101160007F4F8F4F9F4F0895EE0FFF1F881F8BBF3C
:101170000790F691E02D1994A1E21A2EAA1BBB1B31
:10118000FD010DC0AA1FBB1FEE1FFF1FA217B30753
:10119000E407F50720F0A21BB30BE40BF50B661F69
:1011A000771F881F991F1A9469F76095709580952D
:1011B00090959B01AC01BD01CF010895F894FFCF3C
:1011C00002000300040005000600070008000900F3
:1011D0000A000B000C000D00FF0000000019048342
:1011E00003B0036604E103BF03D303657370657244
:0811F000616E646F000D0A003E
:00000001FF
