:100000000C942C010C945D010C945D010C945D0129
:100010000C945D010C945D010C945D010C945D01E8
:100020000C945D010C945D010C945D010C945D01D8
:100030000C945D010C9469040C945D010C945D01B9
:100040000C945D010C945D010C945D010C945D01B8
:100050000C945D010C945D010C945D010C942905D8
:100060000C945D010C94F3040C94C9040C945D0190
:100070000C945D010C945D010C945D010C945D0188
:100080000C945D010C945D010C945D010C945D0178
:100090000C945D010C945D010C945D010C945D0168
:1000A0000C945D010C945D010C945D010C945D0158
:1000B0000C945D010C945D010C945D010C945D0148
:1000C0000C945D010C945D010C945D010C945D0138
:1000D0000C945D010C945D010C945D010C945D0128
:1000E0000C945D010C9407030C94F5010C94E90247
:1000F0000C94EF020C94F3020C94DA020C94E602D6
:100100000C94E2020C9473050C94F9020C94C8024E
:100110000C949B010C94DE020C948C010C948409C9
:100120000C94C3020C94AF010C945F010C94010376
:100130000C940B030C9415030C9419030C94FD02FE
:100140000C94BD010C9442020C940F03000021009A
:10015000240027002A002D00300033000101000098
:10016000040107010A0100000A0B02090C0D0E0828
:100170000703040100000000000000000000000070
:10018000000000000000000000000000000000006F
:10019000000012111000000000000000000000002C
:1001A000000000000000000000000000010210201C
:1001B000200808102040102040800201020108049D
:1001C0000201010204081020408080402010080431
:1001D000020180040201804020100804020108048A
:1001E00002010102040810204080010204081020CE
:1001F000408000002200250028002B002E00310046
:10020000340002010000050108010B010505050588
:10021000070508080808020202020A0A080804047E
:1002200004040101010101010101030303030303AC
:100230000303040707070C0C0C0C0C0C0C0C02023B
:10024000020206060606060606060B0B0B0B0B0B38
:100250000B0B02007305840911241FBECFEFD1E2FE
:10026000DEBFCDBF00E00CBF23E0A6E3B2E001C0DB
:100270001D92A634B207E1F712E0A0E0B2E0E8E890
:10028000F8E100E00BBF02C007900D92A633B10762
:10029000D9F711E0CBE2D1E000E006C021970109D7
:1002A000802FFE010E94E309CA32D10780E00807CF
:1002B000A9F70E94AE050C94320C0C940000AF928A
:1002C000BF92CF92DF92EF92FF920F931F93CF9343
:1002D000DF936C017B018B01040F151FEB015E01A5
:1002E000AE18BF08C017D10759F06991D601ED913A
:1002F000FC910190F081E02DC6011995892B79F7C9
:10030000C501DF91CF911F910F91FF90EF90DF908A
:10031000CF90BF90AF900895FC01538D448D252F51
:1003200030E0842F90E0821B930B541710F0CF968F
:10033000089501970895FC01918D828D981761F0C1
:10034000A28DAE0FBF2FB11D5D968C91928D9F5FD8
:100350009F73928F90E008958FEF9FEF0895FC01B7
:10036000918D828D981731F0828DE80FF11D858D6A
:1003700090E008958FEF9FEF0895FC01918D228DFD
:10038000892F90E0805C9F4F821B91098F73992782
:1003900008958FE992E00E94BD0121E0892B09F4C4
:1003A00020E0822F0895FC01A48DA80FB92FB11D64
:1003B000A35ABF4F2C91848D90E001968F7399279B
:1003C000848FA689B7892C93A089B1898C91837079
:1003D00080648C93938D848D981306C00288F38972
:1003E000E02D80818F7D80830895EF92FF920F939F
:1003F0001F93CF93DF93EC0181E0888F9B8D8C8DD1
:1004000098131AC0E889F989808185FF15C09FB7C4
:10041000F894EE89FF896083E889F9898081837087
:10042000806480839FBF81E090E0DF91CF911F9136
:100430000F91FF90EF900895F62E0B8D10E00F5F57
:100440001F4F0F731127E02E8C8D8E110CC00FB62D
:1004500007FCFACFE889F989808185FFF5CFCE01C5
:100460000E94D301F1CFEB8DEC0FFD2FF11DE35A6C
:10047000FF4FF0829FB7F8940B8FEA89FB89808148
:100480008062CFCFCF93DF93EC01888D8823B9F0C2
:10049000AA89BB89E889F9898C9185FD03C080818F
:1004A00086FD0DC00FB607FCF7CF8C9185FFF2CF0C
:1004B000808185FFEDCFCE010E94D301E9CFDF918E
:1004C000CF91089580E090E0892B29F00E94C90126
:1004D00081110E94000080E090E0892B49F080E0CB
:1004E00090E0892B29F00E94000081110E940000F9
:1004F00080E090E0892B49F080E090E0892B29F0A2
:100500000E94000081110E94000080E090E0892B91
:1005100049F080E090E0892B29F00E9400008111D1
:100520000C9400000895282F30E0F901EA59FE4F9D
:100530009491F901E455FE4F4491245F3D4FF90138
:100540002491222309F435C0992311F1915092315D
:10055000F8F4E92FF0E08827EF54FD4F8F4F0C940B
:10056000E309E202E602C302DA02DE02C802E9029D
:10057000EF02F302F902FD02010307030B03C802B5
:100580000F0315031903809180008F7780938000FB
:10059000E22FF0E0EE0FFF1FEE50FE4FA591B49159
:1005A0008FB7F894EC91611148C040954E234C935D
:1005B0008FBF0895809180008F7DE8CF809180006B
:1005C000877FE4CF84B58F7784BDE2CF84B58F7DFC
:1005D000FBCF8091B0008F778093B000D9CF80910E
:1005E000B0008F7DF9CF809190008F77809390003D
:1005F000CFCF809190008F7DF9CF80919000877F41
:10060000F5CF8091A0008F778093A000C1CF80911B
:10061000A0008F7DF9CF8091A000877FF5CF8091DA
:1006200020018F7780932001B3CF809120018F7DAF
:10063000F9CF80912001877FF5CF4E2BB8CF9091D5
:10064000000289130DC0E2E5F2E0E4919FEF909380
:100650000002E230E1F038F4EE2381F0E13089F07D
:1006600060E00C949302E43049F110F1E530C1F7F9
:10067000909173009D7F90937300F2CF10926E0063
:10068000EFCF90916F009D7F90936F00E9CF909195
:1006900070009D7F9093700091E09093B0009091D6
:1006A000B100987F94609093B1001092B300D8CFBE
:1006B000909171009D7F90937100D2CF90917200C4
:1006C0009D7F90937200CCCFCF93DF9390E0FC019D
:1006D000E455FE4F2491845F9D4FFC018491882353
:1006E000D1F090E0880F991FFC01E45BFE4FA591CB
:1006F000B491FC01EE50FE4FC591D49161110EC032
:100700009FB7F8948C91E22FE0958E238C932881EB
:10071000E223E8839FBFDF91CF9108958FB7F894CC
:10072000EC91E22BEC938FBFF6CF3FB7F89480911A
:100730003B0290913C02A0913D02B0913E0226B551
:10074000A89B05C02F3F19F00196A11DB11D3FBF09
:10075000BA2FA92F982F8827BC01CD01620F711DD8
:10076000811D911D42E0660F771F881F991F4A95D2
:10077000D1F708958F929F92AF92BF92CF92DF925E
:10078000EF92FF920E9495034B015C018AE0C82E14
:10079000D12CE12CF12C0E949503681979098A0962
:1007A0009B09683E734081059105A8F321E0C21AB8
:1007B000D108E108F10888EE880E83E0981EA11C9C
:1007C000B11CC114D104E104F10429F7FF90EF90AA
:1007D000DF90CF90BF90AF909F908F90089542E0B0
:1007E00050E069E172E08FE992E00C945F01CF93F1
:1007F000DF93FC0101900020E9F73197AF01481B1E
:10080000590BBC018FE992E00E945F01EC010E944C
:10081000EF038C0F9D1FDF91CF910895FC01808124
:100820009181009711F00C94A90A08950F931F93DA
:10083000CF93DF93EC0188819981009759F02A8149
:100840003B812617370730F081E0DF91CF911F9170
:100850000F9108958B016F5F7F4F0E94320B0097BD
:1008600059F0998388831B830A832C813D81232B34
:1008700059F7FC011082E8CF80E0E7CFEF92FF92BA
:100880000F931F93CF93DF93EC017B018A01BA0191
:100890000E94160428813981811114C02115310567
:1008A00019F0C9010E94A90A198218821D821C82AE
:1008B0001B821A82CE01DF91CF911F910F91FF9081
:1008C000EF9008951D830C83B701C9010E941C0C91
:1008D000F1CF1F920F920FB60F9211240BB60F9209
:1008E0002F933F934F935F936F937F938F939F9338
:1008F000AF93BF93EF93FF93809153029091540273
:10090000A0915502B0915602892B8A2B8B2BE1F1D5
:1009100090914202E0914302F09144028081892744
:1009200080838091530290915402A0915502B0911E
:100930005602181619061A061B069CF480915302DB
:1009400090915402A0915502B09156020197A109CD
:10095000B1098093530290935402A0935502B0932F
:100960005602FF91EF91BF91AF919F918F917F912F
:100970006F915F914F913F912F910F900BBE0F9010
:100980000FBE0F901F901895809100020E941F03C8
:10099000E8CF1F920F920FB60F9211240BB60F9251
:1009A0002F933F934F935F936F937F938F939F9377
:1009B000AF93BF93EF93FF938FE992E00E94D3012F
:1009C000FF91EF91BF91AF919F918F917F916F9127
:1009D0005F914F913F912F910F900BBE0F900FBEE3
:1009E0000F901F9018951F920F920FB60F9211241F
:1009F0000BB60F922F938F939F93EF93FF93E091FA
:100A0000AF02F091B0028081E091B502F091B602A0
:100A100082FD1DC090818091B8028F5F8F732091FD
:100A2000B902821741F0E091B802F0E0E156FD4FC3
:100A3000958F8093B802FF91EF919F918F912F91A5
:100A40000F900BBE0F900FBE0F901F9018958081D6
:100A5000F2CF1F920F920FB60F9211242F933F9354
:100A60008F939F93AF93BF938091370290913802F9
:100A7000A0913902B0913A023091360223E0230F5F
:100A80002D3758F50196A11DB11D20933602809394
:100A9000370290933802A0933902B0933A028091C2
:100AA0003B0290913C02A0913D02B0913E02019622
:100AB000A11DB11D80933B0290933C02A0933D0287
:100AC000B0933E02BF91AF919F918F913F912F9133
:100AD0000F900FBE0F901F90189526E8230F0296D7
:100AE000A11DB11DD2CFEFE9F2E01382128288EE90
:100AF00093E0A0E0B0E084839583A683B7838BE086
:100B000092E09183808385EC90E09587848784ECE4
:100B100090E09787868780EC90E0918B808B81ECCA
:100B200090E0938B828B82EC90E0958B848B86ECAB
:100B300090E0978B868B118E128E138E148EECE3C1
:100B4000F3E011821082138212821582148250E027
:100B500040E06BE172E0CF010C943E04CF93DF9351
:100B6000CDB7DEB766970FB6F894DEBF0FBECDBF28
:100B7000789484B5826084BD84B5816084BD85B578
:100B8000826085BD85B5816085BD80916E00816084
:100B900080936E001092810080918100826080932A
:100BA000810080918100816080938100809180002C
:100BB0008160809380008091B10084608093B10057
:100BC0008091B00081608093B0008091910082603C
:100BD0008093910080919100816080939100809139
:100BE00090008160809390008091A100826080934A
:100BF000A1008091A10081608093A1008091A0005C
:100C000081608093A0008091210182608093210106
:100C10008091210181608093210180912001816078
:100C20008093200180917A00846080937A00809183
:100C30007A00826080937A0080917A00816080934C
:100C40007A0080917A00806880937A001092C100C7
:100C5000E091AF02F091B00282E08083E091AB02BC
:100C6000F091AC021082E091AD02F091AE028FECF7
:100C700080831092B702E091B302F091B40286E053
:100C80008083E091B102F091B20280818061808323
:100C9000E091B102F091B202808188608083E0919E
:100CA000B102F091B202808180688083E091B1024C
:100CB000F091B20280818F7D808316E161E0812F07
:100CC0000E94640360E0812F0E9493021F5F16332D
:100CD000A9F760E08DE00E94640388248A94982C30
:100CE00054011E861D86188A1F861A8A198A50E0AA
:100CF00040E06BE172E0CE010D960E943E048FE968
:100D000092E00E94BD01181619060CF58FE992E0D9
:100D10000E949B0189831A8209891A890F5F1F4FDC
:100D2000B801CE010D960E941604882369F02D8526
:100D30003E8589899A89BE016F5F7F4F820F931F1D
:100D40000E941C0C1A8B098B0E94BA03D8CF898988
:100D50009A89892B09F4ABC2ED85FE8580818823B1
:100D600009F4A5C28CE192E00E94F70349895A89EF
:100D70006D857E858FE992E00E945F010E94EF03FE
:100D800018861F821A8619861C861B866D857E85AD
:100D90006115710531F049895A89CE0107960E9483
:100DA0003E042DB73EB73E8B2D8B87E292E00E942A
:100DB000F7034B855C856F8178858FE992E00E940F
:100DC0005F010E94EF038B859C857C0131E0E31A73
:100DD000F108EDB7FEB7E81BF90B0FB6F894FEBFAC
:100DE0000FBEEDBF2DB73EB72F5F3F4F1901892BC7
:100DF00051F06F817885A701C9010E94230CF10190
:100E0000EE0DFF1D1082F1018081803309F0AFC02B
:100E100081818B3309F0ABC01A8219821C821B823C
:100E20001E821D8250E040E06BE172E0CE0101962F
:100E30000E943E046101F2E0CF0ED11C2B853C855F
:100E4000C6018219930982179307F8F4F60181917C
:100E50006F018B8B1C8AED80FE80FFEFEF1AFF0A7B
:100E6000B701CE0101960E941604882339F3298127
:100E70003A818D819E81BE016D5E7F4F820F931FEF
:100E80000E941C0CFE82ED82D9CF89819A81009745
:100E900009F469C00E9488096115710581059105F1
:100EA00009F461C078E5472E72E0572E612C712C51
:100EB000E2E4EE2EE2E0FE2EF2EECF2EF1E0DF2EA7
:100EC00005E1060F80910002863309F078C0E2E563
:100ED000F2E0149117FD2BC061E086E30E946403E9
:100EE000112319F0123009F03BC168E478EE81E07B
:100EF00090E0A30192010E94C409BA01A9014150E6
:100F0000510961097109112309F4EBC18091B10004
:100F1000887F84608093B100123009F49FC10CF087
:100F200096C1112309F4E1C1113009F42FC161E028
:100F3000802F0E9493020E94BA0360E0802F0E94DB
:100F400093020E94BA03FFEF4F1A5F0A6F0A7F0AEB
:100F50002CEB421622E052066104710409F0B2CF74
:100F600086E30E941F03CE0101960E940E04F10148
:100F700080818C3409F088C18181853409F084C175
:100F80008281843409F080C183818B3309F07CC174
:100F90002B853C85EFE5F2E0D1011496CD01821955
:100FA00093098217930708F06FC18D91813309F07F
:100FB00065C181E090E0918380833296EFCF8F3FCF
:100FC00009F0B5CF86E380930002E2E5F2E01491E8
:100FD000812F1F3F09F4ABCF123009F465C060F4D4
:100FE000112371F1113009F442C087FDA0CF61E0F7
:100FF00086E30E94640376CF143009F494C008F4A9
:1010000074C0153091F71092200110922101809147
:10101000210188608093210180912101816080936A
:101020002101F7018491E82FF0E0EE0FFF1FEE5051
:10103000FE4F85919491F601849180933F024CCFAD
:1010400014BC15BC84B5826084BD85B5816085BD46
:10105000F7018491E82FF0E0EE0FFF1FEE50FE4FF6
:1010600085919491F60184918093460235CF109238
:1010700080001092810080918100886080938100BF
:1010800080918100816080938100F7018491E82F35
:10109000F0E0EE0FFF1FEE50FE4F85919491F601A8
:1010A00084918093450218CF1092B0001092B10045
:1010B0008091B00082608093B0008091B100816027
:1010C0008093B100F7018491E82FF0E0EE0FFF1F4D
:1010D000EE50FE4F85919491909344028093430289
:1010E000F601849180934202F7CE10929000109204
:1010F000910080919100886080939100809191008F
:10110000816080939100F7018491E82FF0E0EE0F69
:10111000FF1FEE50FE4F85919491F60184918093CC
:10112000410213E0D9CE1092A0001092A10080914C
:10113000A10088608093A1008091A10081608093CC
:10114000A100F7018491E82FF0E0EE0FFF1FEE50B1
:10115000FE4F85919491F601849180934002BCCE1C
:1011600060E072E18AE790E0A30192010E94C40965
:10117000BA01A90141505109610971091130C1F445
:1011800080918100887F81608093810050938900E5
:10119000409388008092570290925802A092590280
:1011A000B0925A0280916F00826080936F00BFCE30
:1011B0001330C1F480919100887F81608093910009
:1011C000509399004093980080924F029092500261
:1011D000A0925102B092520280917100826080937D
:1011E0007100A5CE1430C1F48091A100887F816088
:1011F0008093A1005093A9004093A80080924B02D5
:1012000090924C02A0924D02B0924E0280917200D8
:101210008260809372008BCE153009F07DCE809174
:101220002101887F8160809321015093290140939F
:1012300028018092470290924802A0924902B092FF
:101240004A028091730082608093730070CE1430E4
:1012500089F20CF4B5CF153041F369CE4093B30059
:101260008092530290925402A0925502B09256027C
:101270008091700082608093700059CE803309F0B5
:101280009CCE1182108299CEED89FE890FB6F8941A
:10129000FEBF0FBEEDBFCE0107960E940E0450E0C8
:1012A00040E06BE172E0CE010D960E943E040FE536
:1012B00012E086E1F82EF801819191918F0161E0B1
:1012C000019709F060E08F2D0E949302F394F6E3FA
:1012D000FF12F1CFCE010D960E940E040E94620211
:1012E00000CD85B5887F836085BD47BD80925B0258
:1012F00090925C02A0925D02B0925E0280916E00BC
:10130000826080936E0013CE8CE393E00C940E0405
:101310001F93FC0199278827BC01E8941191103292
:10132000E9F3193010F01E30C8F31B3251F01D32B2
:1013300049F4689406C00E94AF09610F711D811DB8
:10134000911D119110531A30B0F33EF49095809591
:10135000709561957F4F8F4F9F4F1F910895592F23
:10136000482F372F262F660F771F881F991F660F6C
:10137000771F881F991F620F731F841F951F660FA9
:10138000771F881F991F0895052E97FB1EF4009460
:101390000E94DB0957FD07D00E94EB0907FC03D030
:1013A0004EF40C94DB0950954095309521953F4FB4
:1013B0004F4F5F4F089590958095709561957F4F41
:1013C0008F4F9F4F0895EE0FFF1F881F8BBF079011
:1013D000F691E02D1994A1E21A2EAA1BBB1BFD0168
:1013E0000DC0AA1FBB1FEE1FFF1FA217B307E40704
:1013F000F50720F0A21BB30BE40BF50B661F771F5C
:10140000881F991F1A9469F760957095809590953B
:101410009B01AC01BD01CF0108950F931F93CF93A2
:10142000DF938230910510F482E090E0E091440374
:10143000F091450330E020E0B0E0A0E0309799F46F
:101440002115310509F44AC0281B390B2430310518
:10145000D8F58A819B816115710589F1FB01938320
:101460008283FE0111C0408151810281138148179E
:101470005907E0F04817590799F4109761F0129650
:101480000C93129713961C933296CF01DF91CF9154
:101490001F910F9108950093440310934503F4CFD7
:1014A0002115310551F04217530738F0A901DB012E
:1014B0009A01BD01DF01F801C1CFEF01F9CF90938F
:1014C000450380934403CDCFFE01E20FF31F8193C8
:1014D00091932250310939832883D7CF2091420339
:1014E00030914303232B41F42091030230910402F5
:1014F0003093430320934203209101023091020272
:101500002115310541F42DB73EB7409105025091A8
:101510000602241B350BE0914203F0914303E217CE
:10152000F307A0F42E1B3F0B2817390778F0AC0106
:101530004E5F5F4F2417350748F04E0F5F1F5093E3
:10154000430340934203819391939FCFF0E0E0E007
:101550009CCFCF93DF930097E9F0FC013297138281
:101560001282A0914403B0914503ED0130E020E0E8
:101570001097A1F420813181820F931F20914203A3
:10158000309143032817390709F061C0F0934303F2
:10159000E0934203DF91CF910895EA01CE17DF0770
:1015A000E8F54A815B819E0141155105B1F7E901DA
:1015B000FB83EA8349915991C40FD51FEC17FD07AE
:1015C00061F4808191810296840F951FE9019983CE
:1015D0008883828193819B838A83F0E0E0E0129686
:1015E0008D919C9113970097B9F52D913C9111978E
:1015F000CD010296820F931F209142033091430345
:101600002817390739F6309751F510924503109293
:101610004403B0934303A0934203BCCFD383C2835C
:1016200040815181840F951FC817D90761F44E5F1F
:101630005F4F88819981480F591F518340838A8168
:101640009B81938382832115310509F0B0CFF093FC
:101650004503E09344039ECFFD01DC01C0CF13821C
:101660001282D7CF4F925F926F927F928F929F920A
:10167000AF92BF92CF92DF92EF92FF920F931F93A0
:10168000CF93DF938C01009799F4CB01DF91CF9139
:101690001F910F91FF90EF90DF90CF90BF90AF9090
:1016A0009F908F907F906F905F904F900C940D0A59
:1016B000FC01E60FF71F9C0122503109E217F307E6
:1016C00008F4AEC0D901CD91DC911197C617D707A8
:1016D00020F1C530D10578F0CE0104978617970721
:1016E00050F0C61BD70B2297C193D1936D937C9377
:1016F000CF010E94A90AC801DF91CF911F910F91DC
:10170000FF90EF90DF90CF90BF90AF909F908F9021
:101710007F906F905F904F9008955B01AC1ABD0A67
:101720004C018C0E9D1EA0914403B0914503512C99
:10173000412CF12CE12C109731F5809142039091CE
:1017400043038815990509F05CC04616570608F052
:1017500058C08091010290910202009741F48DB728
:101760009EB74091050250910602841B950BE81725
:10177000F90708F055C0F0934303E0934203F901E1
:1017800071836083B8CF8D919C91119712966C9064
:10179000129713967C901397A815B90559F56C010B
:1017A00042E0C40ED11CCA14DB0420F1AC014A197A
:1017B0005B09DA011296159780F062827382518379
:1017C0004083D9016D937C93E114F10471F0D7014A
:1017D0001396FC93EE9312978ECF22968C0F9D1F3B
:1017E000F90191838083F301EFCFF0934503E093F8
:1017F000440381CF4816590608F42C017D01D3011A
:101800009ACFCB010E940D0A7C01009749F0AE01EE
:10181000B8010E94130CC8010E94A90A87016BCF6E
:1018200010E000E068CFFB01DC0102C001900D92E6
:1018300041505040D8F70895FB01DC0101900D9212
:101840000020E1F70895FB01DC014150504048F0D1
:1018500001900D920020C9F701C01D9241505040E7
:10186000E0F7089511E0CBE2D1E000E006C0802F60
:10187000FE010E94E3092196011DCC32D10780E0D0
:081880000807A9F7F894FFCF57
:10188800FF00004603800000000000F5015F018CA6
:10189800014202BD019B01AF010D0A005265636957
:1018A8006269646F3A2000496E746572707265747B
:0618B800616E646F000088
:00000001FF
