:100000000C9422010C9453010C9453010C94530151
:100010000C9453010C9453010C9453010C94530110
:100020000C9453010C9453010C9453010C94530100
:100030000C9453010C9453010C9453010C945301F0
:100040000C9453010C9453010C9453010C945301E0
:100050000C9453010C9453010C9453010C947B04A5
:100060000C9453010C9453010C9453010C945301C0
:100070000C9453010C9453010C9453010C945301B0
:100080000C9453010C9453010C9453010C945301A0
:100090000C9453010C9453010C9453010C94530190
:1000A0000C9453010C9453010C9453010C94530180
:1000B0000C9453010C9453010C9453010C94530170
:1000C0000C9453010C9453010C9453010C94530160
:1000D0000C9453010C9453010C9453010C94530150
:1000E0000C9453010C94F4010C94EC010C94D10188
:1000F0000C9415020C9433040C940F020C942702F8
:100100000C94F7010C9484020C947F070C941D024C
:100110000C940B020C9419020C94F0010C948502BF
:100120000C94E8010C94D6010C9401020C94740117
:100130000C9407020C94FD010C94230200000A0B9E
:1001400002090C0D0E080703040100000000000066
:10015000000000000000000000000000000000009F
:10016000000000000000000012111000000000005C
:10017000000000000000000000000000000000007F
:10018000000000002200250028002B002E00310076
:10019000340002010000050108010B0100002100EC
:1001A000240027002A002D00300033000101000048
:1001B000040107010A0105050505070508080808E7
:1001C000020202020A0A08080404040401010101EF
:1001D00001010101030303030303030304070707EA
:1001E0000C0C0C0C0C0C0C0C02020202060606068F
:1001F000060606060B0B0B0B0B0B0B0B010210205C
:10020000200808102040102040800201020108044C
:1002100002010102040810204080804020100804E0
:100220000201800402018040201008040201080439
:10023000020101020408102040800102040810207D
:1002400040807F0711241FBECFEFD1E2DEBFCDBFBC
:1002500000E00CBF12E0A0E0B2E0E2E9FFE000E065
:100260000BBF02C007900D92AA3CB107D9F722E05C
:10027000AAECB2E001C01D92AB3EB207E1F711E07B
:10028000C2E2D1E000E006C021970109802FFE0103
:100290000E94BF07C132D10780E00807A9F70E947A
:1002A000C5040C94C7070C94000090E0FC01E450D6
:1002B000FE4F24918A549E4FFC018491882399F02B
:1002C00090E0880F991FFC01E456FE4FA591B49170
:1002D000FC01EE57FE4F859194918FB7F894EC9105
:1002E000E22BEC938FBF0895AF92BF92CF92DF9233
:1002F000EF92FF920F931F93CF93DF936C017B01DB
:100300008B01040F151FEB015E01AE18BF08C0176B
:10031000D10759F06991D601ED91FC910190F081DE
:10032000E02DC6011995892B79F7C501DF91CF9191
:100330001F910F91FF90EF90DF90CF90BF90AF9003
:100340000895282F30E0F901E45CFE4F9491F90103
:10035000E450FE4F44912A543E4FF9012491222348
:1003600009F435C0992311F191509231F8F4E92F35
:10037000F0E08827E154FE4F8F4F0C94BF07F00147
:10038000F401D101E801EC01D601F701FD01010200
:1003900007020B020F0215021902D6011D022302E9
:1003A0002702809180008F7780938000E22FF0E019
:1003B000EE0FFF1FEE57FE4FA591B4918FB7F89443
:1003C000EC91611148C040954E234C938FBF089526
:1003D000809180008F7DE8CF80918000877FE4CF7F
:1003E00084B58F7784BDE2CF84B58F7DFBCF8091BC
:1003F000B0008F778093B000D9CF8091B0008F7D0F
:10040000F9CF809190008F7780939000CFCF80912B
:1004100090008F7DF9CF80919000877FF5CF8091FC
:10042000A0008F778093A000C1CF8091A0008F7D26
:10043000F9CF8091A000877FF5CF809120018F7741
:1004400080932001B3CF809120018F7DF9CF8091DF
:100450002001877FF5CF4E2BB8CF3FB7F89480911E
:10046000CF029091D002A091D102B091D20226B5D4
:10047000A89B05C02F3F19F00196A11DB11D3FBFDC
:10048000BA2FA92F982F8827BC01CD01620F711DAB
:10049000811D911D42E0660F771F881F991F4A95A5
:1004A000D1F708958F929F92AF92BF92CF92DF9231
:1004B000EF92FF924B015C010E942D026B017C01C7
:1004C0000E942D026C197D098E099F09683E7340B8
:1004D00081059105A8F321E0821A9108A108B108CD
:1004E00088EEC80E83E0D81EE11CF11C8114910433
:1004F000A104B10429F7FF90EF90DF90CF90BF9057
:10050000AF909F908F900895089590E080E00895B7
:100510008F929F92AF92BF920F931F93CF93DF93CF
:10052000CDB7DEB7A1970FB6F894DEBF0FBECDBF33
:1005300019A2423008F44AE08E010F5D1F4F842E4D
:10054000912CB12CA12CA50194010E949D07E62FAE
:10055000B901CA01EA3044F5E05DD801EE938D019E
:10056000232B242B252B79F790E080E0109769F05E
:10057000FD0101900020E9F73197AF014A1B5B0BA9
:10058000BD0183ED92E00E947401A1960FB6F8942C
:10059000DEBF0FBECDBFDF91CF911F910F91BF90F6
:1005A000AF909F908F900895E95CD7CFFC010190A8
:1005B0000020E9F73197AF01481B590BBC0183EDCF
:1005C00092E00C947401CF93DF93EC0160E08E8194
:1005D0000E94A10161E08E810E94A10160E08E81F4
:1005E0000E94A1018BE891E00197F1F7DF91CF9193
:1005F0000895CF92DF92EF92FF920F931F93CF93C4
:10060000DF936C017C0187E0E80EF11CD0E0C0E0D4
:10061000062F10E0B8010C2E02C0759567950A945C
:10062000E2F76170F70181917F010E94A10121969B
:10063000C430D10579F7C601DF91CF911F910F9199
:10064000FF90EF90DF90CF900C94E302CF92DF9277
:10065000EF92FF920F931F93CF93DF93EC01F62E4F
:10066000642F8C810E94A1018D818F3F19F060E081
:100670000E94A1010F2D10E08F8584FF25C06E011F
:1006800087E0C80ED11CF12CE12CB8010E2C02C061
:10069000759567950A94E2F76170F60181916F0193
:1006A0000E94A101FFEFEF1AFF0A88E0E816F104AB
:1006B00061F7CE01DF91CF911F910F91FF90EF90E5
:1006C000DF90CF900C94E302B80184E075956795B4
:1006D0008A95E1F7CE010E94F9026F2DCE01DF91DC
:1006E000CF911F910F91FF90EF90DF90CF900C94DE
:1006F000F90240E0682F83ED92E00C94260381E03C
:100700000E9479038BE39FE10197F1F70895CF935E
:10071000DF93823029F49091E20298609093E20294
:100720008093E6021092E70280E48093E80280E181
:100730008093E90280E58093EA028091D7020E94CB
:1007400055018091D8028F3F11F00E945501809190
:10075000D9020E945501C3EDD2E09E01235D3240D3
:100760008091E20284FD0AC084E090E0219628177F
:1007700039073CF48E810E945501EFCF88E090E06C
:10078000F5CF8BE39DE00197F1F760E08091D70210
:100790000E94A10160E08091D9020E94A101809194
:1007A000D8028F3F19F060E00E94A1018091E2021F
:1007B00084FD34C063E083ED92E00E94F902CBE453
:1007C000D6E4CE010197F1F763E083ED92E00E9459
:1007D000F9022197F1F763E083ED92E00E94F902BC
:1007E00083E592E00197F1F762E083ED92E00E94E9
:1007F000F9028091E20280620E94790384E0809392
:10080000E3028CE00E9479030E947F0382E08093E0
:10081000E40286E0DF91CF910C94790380620E941C
:1008200079038BE496E40197F1F78091E20280620C
:100830000E94790383E592E00197F1F78091E2024B
:1008400080620E947903D5CF9091E602691710F07B
:100850006FEF690FE62FF0E0ED52FD4F9489890F9D
:1008600080680C94790341E00E94260381E090E0C7
:1008700008950F931F93CF93DF938B01877028E028
:10088000829FC001112480640E947903E801085FFF
:100890001F4F699183ED92E00E943304C017D10786
:1008A000C1F7DF91CF911F910F910895CF92DF9201
:1008B000EF92FF9297FF18C06B017C0141E06DE25F
:1008C00083ED92E00E94260366277727CB016C19FF
:1008D0007D098E099F094AE00E9488020196FF90D7
:1008E000EF90DF90CF9008954AE0FF90EF90DF9077
:1008F000CF900C9488021F920F920FB60F92112482
:100900002F933F938F939F93AF93BF938091CB028D
:100910009091CC02A091CD02B091CE023091CA024A
:1009200023E0230F2D3758F50196A11DB11D20930B
:10093000CA028093CB029093CC02A093CD02B093D5
:10094000CE028091CF029091D002A091D102B091BD
:10095000D2020196A11DB11D8093CF029093D002C7
:10096000A093D102B093D202BF91AF919F918F918A
:100970003F912F910F900FBE0F901F90189526E872
:10098000230F0296A11DB11DD2CF789484B5826049
:1009900084BD84B5816084BD85B5826085BD85B523
:1009A000816085BD80916E00816080936E001092A1
:1009B000810080918100826080938100809181001C
:1009C00081608093810080918000816080938000AD
:1009D0008091B10084608093B1008091B00081600B
:1009E0008093B0008091910082608093910080910B
:1009F000910081608093910080919000816080934C
:100A000090008091A10082608093A1008091A1005C
:100A100081608093A1008091A00081608093A000FC
:100A20008091210182608093210180912101816068
:100A30008093210180912001816080932001809129
:100A40007A00846080937A0080917A00826080933B
:100A50007A0080917A00816080937A0080917A0098
:100A6000806880937A001092C10082E00E94870320
:100A700080E1882E912C01E110E092E1E92EF12C29
:100A800023E1C22ED12C35E1A32EB12C40E0642EFF
:100A900040E0742E67E172E081E00E94390460E07A
:100AA00080E00E94240461E083ED92E00E94330420
:100AB00060E081E00E94240486EA92E00E94D6026F
:100AC00060E172E084E00E94390461E080E00E940D
:100AD000240464E083ED92E00E94330461E081E04D
:100AE0000E94240468E070E080E090E00E945604D8
:100AF00068E072E082E00E94390460E087E00E94D2
:100B0000240462E083ED92E00E94330460E088E018
:100B10000E94240460E170E080E090E00E945604AE
:100B200060E072E083E00E94390461E087E00E94A7
:100B3000240463E083ED92E00E94330461E088E0E6
:100B40000E94240468E070E080E090E00E94560477
:100B500068EB7BE080E090E00E945202C091980236
:100B6000D0919902C03F8FEFD8070CF4C3C082E048
:100B70000E94870360E572E081E00E94390469E425
:100B800072E082E00E94390462E472E083E00E9435
:100B900039046BE372E084E00E94390460E08C2F3A
:100BA0000E94240461E083ED92E00E943304D0911E
:100BB000960260E08D2F0E94240462E083ED92E0B3
:100BC0000E94330461E08C2F0E94240463E083EDD3
:100BD00092E00E94330461E08D2F0E94240464E0BF
:100BE00083ED92E00E94330464E372E085E00E94AA
:100BF00039046DE272E086E00E94390465E272E039
:100C000087E00E9439046EE172E088E00E943904B6
:100C1000D091940260E08D2F0E94240465E083ED62
:100C200092E00E943304C091920260E08C2F0E94F7
:100C3000240466E083ED92E00E94330461E08D2F8E
:100C40000E94240467E083ED92E00E94330461E097
:100C50008C2F0E94240468E083ED92E00E9433040C
:100C600060E0809190020E94240468E070E080E0DF
:100C700090E00E94560461E0809190020E9424045A
:100C800089EA92E00E94D60280919802909199029E
:100C90000197909399028093980280919602909187
:100CA0009702019790939702809396028091940205
:100CB0009091950201979093950280939402809170
:100CC00092029091930201979093930280939202E3
:100CD000809190029091910201979093910280935C
:100CE000900264E670E080E090E00E9452020E9470
:100CF0007F0334CF909299028092980210939702CA
:100D000000939602F0929502E0929402D0929302A0
:100D1000C0929202B0929102A092900268EB7BE0A6
:100D200080E090E00E945202C0919802D091990216
:100D3000C23F8FEFD8070CF4C1C082E00E94870346
:100D400069E872E081E00E94390462E872E082E0C2
:100D50000E9439046BE772E083E00E94390464E783
:100D600072E084E00E94390460E08C2F0E94240429
:100D700061E083ED92E00E943304D091960260E03E
:100D80008D2F0E94240462E083ED92E00E943304E0
:100D900061E08C2F0E94240463E083ED92E00E94C6
:100DA000330461E08D2F0E94240464E083ED92E01F
:100DB0000E9433046DE672E085E00E94390466E625
:100DC00072E086E00E9439046EE572E087E00E94DE
:100DD000390467E572E088E00E943904D0919402FA
:100DE00060E08D2F0E94240465E083ED92E00E9474
:100DF0003304C091920260E08C2F0E94240466E0CC
:100E000083ED92E00E94330461E08D2F0E94240460
:100E100067E083ED92E00E94330461E08C2F0E9432
:100E2000240468E083ED92E00E94330460E0809146
:100E300090020E94240485EB92E00E94D60261E0B9
:100E4000809190020E9424048FEB92E00E94D602CF
:100E500080919802909199020197909399028093C2
:100E60009802809196029091970201979093970231
:100E700080939602809194029091950201979093AD
:100E8000950280939402809192029091930201972F
:100E9000909393028093920280919002909191029C
:100EA0000197909391028093900264E670E080E055
:100EB00090E00E9452020E947F0336CF90929902E6
:100EC000809298021093970200939602F0929502F6
:100ED000E0929402D0929302C0929202B092910258
:100EE000A092900268EB7BE080E090E00E945202CA
:100EF0006114710409F4CECD0E940000CBCDE3ED66
:100F0000F2E0138212828EE992E09183808386E17F
:100F100084838FEF858387E1868388E1878389E1F6
:100F200080878AE181878BE1828713861486158604
:100F30001686178681E00C948703A1E21A2EAA1B5D
:100F4000BB1BFD010DC0AA1FBB1FEE1FFF1FA21779
:100F5000B307E407F50720F0A21BB30BE40BF50B76
:100F6000661F771F881F991F1A9469F760957095FF
:100F7000809590959B01AC01BD01CF010895EE0FC6
:100F8000FF1F881F8BBF0790F691E02D1994F894EE
:020F9000FFCF91
:100F92001F0E151B150E1F1F1F1F1E1D0B171F1FB8
:100FA2001F110A040A111F1F11151117171F011013
:100FB200090B13071F0C01021A191C1F1F1F1F1FE9
:100FC2001F0713011F1F001E1F1F000310080B1312
:100FD200071F1001121A191C1F1F1F1C19130700CB
:100FE2001F1F1F1F1F1E100110090313051E0C01D6
:100FF200021A191C1F1F1E1D1B170713011F1F009A
:101002001E1F1F000310080B13071F1001121819CF
:10101200140F1F1F1C191307000F171B1D1E1E1074
:10102200150013001200110010000000000033042C
:10103200740185028402333200646973706F6E69D1
:10104200626C657300205061727175656F20007863
:0A105200204C6C656E6F20780000E2
:00000001FF
