:100000000C9428010C9459010C9459010C94590139
:100010000C9459010C9459010C9459010C945901F8
:100020000C9459010C9459010C9459010C945901E8
:100030000C9459010C9459010C9459010C945901D8
:100040000C9459010C9459010C9459010C945901C8
:100050000C9459010C9459010C9459010C94960379
:100060000C9459010C9459010C9459010C945901A8
:100070000C9459010C9459010C9459010C94590198
:100080000C9459010C9459010C9459010C94590188
:100090000C9460030C9436030C9459010C94590190
:1000A0000C9459010C9459010C9459010C94590168
:1000B0000C9459010C9459010C9459010C94590158
:1000C0000C9459010C9459010C9459010C94590148
:1000D0000C9459010C9459010C9459010C94590138
:1000E0000C9459010C9498020C94A8010C94600291
:1000F0000C94B9010C94D5010C9402020C94C70124
:100100000C94AC010C94C3010C9452020C94D101D8
:100110000C94B2040C94A4010C94BF010C942F0213
:100120000C9490010C94A0010C94DB010C94B5018B
:100130000C94E5020C94AF010C94DF010C943E0288
:100140000C948B010C94CD010000210024002700A9
:100150002A002D00300033000101000004010701D6
:100160000A0100002200250028002B002E0031008B
:10017000340002010000050108010B010505050519
:10018000070508080808020202020A0A080804040F
:10019000040401010101010101010303030303033D
:1001A0000303040707070C0C0C0C0C0C0C0C0202CC
:1001B000020206060606060606060B0B0B0B0B0BC9
:1001C0000B0B010210202008081020401020408056
:1001D000020102010804020101020408102040800B
:1001E0008040201008040201800402018040201099
:1001F00008040201080402010102040810204080E2
:10020000010204081020408000000A0B02090C0DB6
:100210000E080703040100000000000000000000B9
:1002200000000000000000000000000000000000CE
:10023000000000001211100000000000000000008B
:100240000000000000000000000000000000B204F8
:1002500011241FBECFEFD1E2DEBFCDBF00E00CBF47
:1002600012E0A0E0B2E0E2EDF9E000E00BBF02C076
:1002700007900D92A231B107D9F722E0A2E1B2E0D6
:1002800001C01D92A83BB207E1F711E0C8E2D1E03E
:1002900000E006C021970109802FFE010E94DF04C3
:1002A000C732D10780E00807A9F70E94E0030C9449
:1002B000E7040C940000282F30E0F901E85FFD4FBF
:1002C0009491F901EE53FE4F449124583E4FF901A9
:1002D0002491222309F433C0992311F191509231D2
:1002E000F8F4E92FF0E08827E758FE4F8F4F0C9481
:1002F000DF04A801AC018B01A001A4019001AF01B2
:10030000B501B901BF01C301C701CD01D101900100
:10031000D501DB01DF01809180008F778093800021
:10032000E22FF0E0EE0FFF1FEE59FE4FA591B491C2
:100330008FB7F894EC9140954E234C938FBF08955E
:10034000809180008F7DEACF80918000877FE6CF0B
:1003500084B58F7784BDE4CF84B58F7DFBCF80914A
:10036000B0008F778093B000DBCF8091B0008F7D9D
:10037000F9CF809190008F7780939000D1CF8091BA
:1003800090008F7DF9CF80919000877FF5CF80918D
:10039000A0008F778093A000C3CF8091A0008F7DB5
:1003A000F9CF8091A000877FF5CF809120018F77D2
:1003B00080932001B5CF809120018F7DF9CF80916E
:1003C0002001877FF5CF90E0FC01EE53FE4F249192
:1003D00084589E4FFC018491882399F090E0880F07
:1003E000991FFC01E85BFE4FA591B491FC01EE5909
:1003F000FE4F859194918FB7F894EC91E22BEC939A
:100400008FBF0895AF92BF92CF92DF92EF92FF928B
:100410000F931F93CF93DF936C017B018B01040F2C
:10042000151FEB015E01AE18BF08C017D10759F0C8
:100430006991D601ED91FC910190F081E02DC6010A
:100440001995892B79F7C501DF91CF911F910F91F4
:10045000FF90EF90DF90CF90BF90AF900895FC0198
:10046000538D448D252F30E0842F90E0821B930B19
:10047000541710F0CF96089501970895FC01918DBF
:10048000828D981761F0A28DAE0FBF2FB11D5D96C2
:100490008C91928D9F5F9F73928F90E008958FEF64
:1004A0009FEF0895FC01918D828D981731F0828D18
:1004B000E80FF11D858D90E008958FEF9FEF08956F
:1004C000FC01918D228D892F90E0805C9F4F821BD3
:1004D00091098F73992708958BE192E00E94600241
:1004E00021E0892B09F420E0822F0895FC01A48DDE
:1004F000A80FB92FB11DA35ABF4F2C91848D90E046
:1005000001968F739927848FA689B7892C93A08928
:10051000B1898C91837080648C93938D848D9813B2
:1005200006C00288F389E02D80818F7D8083089545
:10053000EF92FF920F931F93CF93DF93EC0181E033
:10054000888F9B8D8C8D98131AC0E889F9898081DA
:1005500085FF15C09FB7F894EE89FF896083E8890D
:10056000F98980818370806480839FBF81E090E0FF
:10057000DF91CF911F910F91FF90EF900895F62E8C
:100580000B8D10E00F5F1F4F0F731127E02E8C8D26
:100590008E110CC00FB607FCFACFE889F98980816B
:1005A00085FFF5CFCE010E947602F1CFEB8DEC0FE7
:1005B000FD2FF11DE35AFF4FF0829FB7F8940B8F88
:1005C000EA89FB8980818062CFCFCF93DF93EC01F2
:1005D000888D8823B9F0AA89BB89E889F9898C912B
:1005E00085FD03C0808186FD0DC00FB607FCF7CFE7
:1005F0008C9185FFF2CF808185FFEDCFCE010E94E7
:100600007602E9CFDF91CF91089580E090E0892BC9
:1006100049F080E090E0892B29F00E9400008111D0
:100620000E94000080E090E0892B29F00E946C027B
:1006300081110E94000080E090E0892B49F080E069
:1006400090E0892B29F00E94000081110E94000097
:1006500080E090E0892B49F080E090E0892B29F040
:100660000E94000081110C94000008951F920F92C7
:100670000FB60F9211240BB60F922F933F934F9307
:100680005F936F937F938F939F93AF93BF93EF93FA
:10069000FF938BE192E00E947602FF91EF91BF9170
:1006A000AF919F918F917F916F915F914F913F910A
:1006B0002F910F900BBE0F900FBE0F901F901895AB
:1006C0001F920F920FB60F9211240BB60F922F9319
:1006D0008F939F93EF93FF93E0912B02F0912C0265
:1006E0008081E0913102F091320282FD1DC0908143
:1006F000809134028F5F8F7320913502821741F011
:10070000E0913402F0E0E55EFD4F958F8093340276
:10071000FF91EF919F918F912F910F900BBE0F90B2
:100720000FBE0F901F9018958081F2CF1F920F92ED
:100730000FB60F9211242F933F938F939F93AF93F4
:10074000BF938091170290911802A0911902B09165
:100750001A023091160223E0230F2D3758F5019627
:10076000A11DB11D209316028093170290931802C9
:10077000A0931902B0931A02809112029091130271
:10078000A0911402B09115020196A11DB11D809394
:10079000120290931302A0931402B0931502BF911A
:1007A000AF919F918F913F912F910F900FBE0F901E
:1007B0001F90189526E8230F0296A11DB11DD2CFD8
:1007C000789484B5826084BD84B5816084BD85B52C
:1007D000826085BD85B5816085BD80916E00816038
:1007E00080936E00109281008091810082608093DE
:1007F00081008091810081608093810080918000E0
:100800008160809380008091B10084608093B1000A
:100810008091B00081608093B000809191008260EF
:1008200080939100809191008160809391008091EC
:1008300090008160809390008091A10082608093FD
:10084000A1008091A10081608093A1008091A0000F
:1008500081608093A00080912101826080932101BA
:10086000809121018160809321018091200181602C
:100870008093200180917A00846080937A00809137
:100880007A00826080937A0080917A008160809300
:100890007A0080917A00806880937A001092C1007B
:1008A000E0912B02F0912C0282E08083E0912702FC
:1008B000F09128021082E0912902F0912A028FEC37
:1008C000808310923302E0912F02F091300286E093
:1008D0008083E0912D02F0912E02808180618083DF
:1008E000E0912D02F0912E02808188608083E0915A
:1008F0002D02F0912E02808180688083E0912D028C
:10090000F0912E0280818F7D808388E00E94E30138
:1009100089E00E94E3018AE00E94E3018BE00E94EB
:10092000E30184E00E94E30185E00E94E30186E0A8
:100930000E94E30187E00E94E30188E00E945B01DE
:1009400089E00E945B018BE00E945B0184E00E94D1
:100950005B0185E00E945B0187E00E945B010E94D1
:100960000503FDCFEBE1F2E01382128288EE93E003
:10097000A0E0B0E084839583A683B78384E092E00F
:10098000918380838DEC90E0958784878CEC90E058
:100990009787868788EC90E0918B808B89EC90E03C
:1009A000938B828B8AEC90E0958B848B8EEC90E01D
:1009B000978B868B118E128E138E148E0895EE0FE8
:1009C000FF1F881F8BBF0790F691E02D1994F894B4
:0209D000FFCF57
:1009D20000000000980202022F02E50260023E02BD
:0209E2005202BF
:00000001FF
