:100000000C942B010C945C010C945C010C945C012D
:100010000C945C010C945C010C945C010C945C01EC
:100020000C945C010C945C010C945C010C945C01DC
:100030000C945C010C945C010C945C010C945C01CC
:100040000C945C010C945C010C945C010C945C01BC
:100050000C945C010C945C010C945C010C94F40411
:100060000C945C010C94CA040C94A0040C945C01E4
:100070000C945C010C945C010C945C010C945C018C
:100080000C945C010C945C010C945C010C945C017C
:100090000C9476040C944C040C945C010C945C015C
:1000A0000C945C010C945C010C945C010C945C015C
:1000B0000C945C010C945C010C945C010C945C014C
:1000C0000C945C010C945C010C945C010C94220473
:1000D0000C94F8030C945C010C945C010C945C018E
:1000E0000C945C010C9483030C9453030C94A401B2
:1000F0000C945D030C9467020C943E050C947503FC
:100100000C9444030C947F030C9448030C945903FF
:100110000C946B030C9463030C94F9010C941B0274
:100120000C9432030C9471030C9479030C940D021B
:100130000C94EA010C94B4020C9467030C944C03E5
:100140000C942D030C9450030C94420700000A0BEE
:1001500002090C0D0E080703040100000000000056
:10016000000000000000000000000000000000008F
:10017000000000000000000012111000000000004C
:10018000000000000000000000000000000000006F
:10019000000000002200250028002B002E00310066
:1001A000340002010000050108010B0100002100DC
:1001B000240027002A002D00300033000101000038
:1001C000040107010A0105050505070508080808D7
:1001D000020202020A0A08080404040401010101DF
:1001E00001010101030303030303030304070707DA
:1001F0000C0C0C0C0C0C0C0C02020202060606067F
:10020000060606060B0B0B0B0B0B0B0B010210204B
:10021000200808102040102040800201020108043C
:1002200002010102040810204080804020100804D0
:100230000201800402018040201008040201080429
:10024000020101020408102040800102040810206D
:1002500040803E05420711241FBECFEFD1E2DEBF32
:10026000CDBF00E00CBF24E0A8E2B2E001C01D92C7
:10027000A231B207E1F712E0A0E0B2E0E6EFF2E16E
:1002800000E00BBF02C007900D92A832B107D9F76A
:1002900011E0CAE2D1E000E006C021970109802FF9
:1002A000FE010E944B07C932D10780E00807A9F779
:1002B0000E943D060C9469090C940000FC01A08981
:1002C000B18982E08C93A485B5851C92A685B785FB
:1002D0008FEC8C93108EA489B58986E08C93A289CB
:1002E000B3898C9180618C93A289B3898C91886049
:1002F0008C93A289B3898C9180688C930288F3894E
:10030000E02D80818F7D8083089590E0FC01E45F83
:10031000FD4F24918A539E4FFC018491882399F0CC
:1003200090E0880F991FFC01E455FE4FA591B49110
:10033000FC01EE56FE4F859194918FB7F894EC91A5
:10034000E22BEC938FBF0895AF92BF92CF92DF92D2
:10035000EF92FF920F931F93CF93DF936C017B017A
:100360008B01040F151FEB015E01AE18BF08C0170B
:10037000D10759F06991D601ED91FC910190F0817E
:10038000E02DC6011995892B79F7C501DF91CF9131
:100390001F910F91FF90EF90DF90CF90BF90AF90A3
:1003A0000895FC01A089B1898C91A689B78982FD45
:1003B0000FC09C91818D8F5F8F73228D821749F0C2
:1003C000A18DAE0FBF2FB11D5D969C93818F0895B7
:1003D0008C910895FC01538D448D252F30E0842F9E
:1003E00090E0821B930B541710F0CF96089501975D
:1003F0000895FC01918D828D981761F0A28DAE0F4A
:10040000BF2FB11D5D968C91928D9F5F9F73928FD0
:1004100090E008958FEF9FEF0895FC01918D828DFC
:10042000981731F0828DE80FF11D858D90E00895C9
:100430008FEF9FEF0895FC01918D228D892F90E021
:10044000805C9F4F821B91098F739927089581E3E8
:1004500092E00E941B0221E0892B09F420E0822F08
:1004600008958EEC92E00E941B0221E0892B09F492
:1004700020E0822F08958BE693E00E941B0221E08A
:10048000892B09F420E0822F0895FC01A48DA80F88
:10049000B92FB11DA35ABF4F2C91848D90E00196C6
:1004A0008F739927848FA689B7892C93A089B189E6
:1004B0008C91837080648C93938D848D981306C087
:1004C0000288F389E02D80818F7D80830895EF92EB
:1004D000FF920F931F93CF93DF93EC0181E0888FFE
:1004E0009B8D8C8D98131AC0E889F989808185FFCE
:1004F00015C09FB7F894EE89FF896083E889F98970
:1005000080818370806480839FBF81E090E0DF9171
:10051000CF911F910F91FF90EF900895F62E0B8DC4
:1005200010E00F5F1F4F0F731127E02E8C8D8E117F
:100530000CC00FB607FCFACFE889F989808185FFE6
:10054000F5CFCE010E944502F1CFEB8DEC0FFD2FD0
:10055000F11DE35AFF4FF0829FB7F8940B8FEA89A1
:10056000FB8980818062CFCFCF93DF93EC01888DB0
:100570008823B9F0AA89BB89E889F9898C9185FD1E
:1005800003C0808186FD0DC00FB607FCF7CF8C91AC
:1005900085FFF2CF808185FFEDCFCE010E9445021D
:1005A000E9CFDF91CF91089580E090E0892B29F089
:1005B0000E943B0281110E94000080E090E0892BA4
:1005C00029F00E94310281110E94000080E090E039
:1005D000892B29F00E94270281110E94000080E0EF
:1005E00090E0892B49F080E090E0892B29F00E946F
:1005F000000081110C9400000895282F30E0F901CB
:10060000E45BFE4F9491F901E45FFD4F44912A535E
:100610003E4FF9012491222309F435C0992311F1A9
:1006200091509231F8F4E92FF0E08827E55EFC4F15
:100630008F4F0C944B074C0350032D034403480386
:100640003203530359035D03630367036B037103B1
:100650007503320379037F038303809180008F77D2
:1006600080938000E22FF0E0EE0FFF1FEE56FE4F6A
:10067000A591B4918FB7F894EC91611148C0409561
:100680004E234C938FBF0895809180008F7DE8CFDB
:1006900080918000877FE4CF84B58F7784BDE2CFDF
:1006A00084B58F7DFBCF8091B0008F778093B000B1
:1006B000D9CF8091B0008F7DF9CF809190008F7756
:1006C00080939000CFCF809190008F7DF9CF809163
:1006D0009000877FF5CF8091A0008F778093A00056
:1006E000C1CF8091A0008F7DF9CF8091A000877F3E
:1006F000F5CF809120018F7780932001B3CF809137
:1007000020018F7DF9CF80912001877FF5CF4E2B7F
:10071000B8CF3FB7F89480912D0290912E02A0910E
:100720002F02B091300226B5A89B05C02F3F19F0CB
:100730000196A11DB11D3FBFBA2FA92F982F882761
:10074000BC01CD01620F711D811D911D42E0660F3C
:10075000771F881F991F4A95D1F708958F929F920E
:10076000AF92BF92CF92DF92EF92FF924B015C016A
:100770000E9489036B017C010E9489036C197D0929
:100780008E099F09683E734081059105A8F321E019
:10079000821A9108A108B10888EEC80E83E0D81E1D
:1007A000E11CF11C81149104A104B10429F7FF900C
:1007B000EF90DF90CF90BF90AF909F908F90089573
:1007C00060E084E00E94FD0260E085E00E94FD029E
:1007D00060E087E00C94FD0260E088E00E94FD028A
:1007E00060E089E00E94FD0260E08BE00C94FD0275
:1007F0001F920F920FB60F9211240BB60F922F93E8
:100800003F934F935F936F937F938F939F93AF9398
:10081000BF93EF93FF9381E392E00E944502FF9123
:10082000EF91BF91AF919F918F917F916F915F9168
:100830004F913F912F910F900BBE0F900FBE0F90D5
:100840001F9018951F920F920FB60F9211240BB69E
:100850000F922F933F934F935F936F937F938F9359
:100860009F93AF93BF93EF93FF9381E392E00E9436
:10087000D101FF91EF91BF91AF919F918F917F91A6
:100880006F915F914F913F912F910F900BBE0F9001
:100890000FBE0F901F9018951F920F920FB60F92D8
:1008A00011240BB60F922F933F934F935F936F9347
:1008B0007F938F939F93AF93BF93EF93FF938EECB0
:1008C00092E00E944502FF91EF91BF91AF919F91FD
:1008D0008F917F916F915F914F913F912F910F90E9
:1008E0000BBE0F900FBE0F901F9018951F920F9286
:1008F0000FB60F9211240BB60F922F933F934F9385
:100900005F936F937F938F939F93AF93BF93EF9377
:10091000FF938EEC92E00E94D101FF91EF91BF9185
:10092000AF919F918F917F916F915F914F913F9187
:100930002F910F900BBE0F900FBE0F901F90189528
:100940001F920F920FB60F9211240BB60F922F9396
:100950003F934F935F936F937F938F939F93AF9347
:10096000BF93EF93FF938BE693E00E944502FF91C4
:10097000EF91BF91AF919F918F917F916F915F9117
:100980004F913F912F910F900BBE0F900FBE0F9084
:100990001F9018951F920F920FB60F9211240BB64D
:1009A0000F922F933F934F935F936F937F938F9308
:1009B0009F93AF93BF93EF93FF938BE693E00E94D7
:1009C000D101FF91EF91BF91AF919F918F917F9155
:1009D0006F915F914F913F912F910F900BBE0F90B0
:1009E0000FBE0F901F9018951F920F920FB60F9287
:1009F00011242F933F938F939F93AF93BF93809135
:100A0000290290912A02A0912B02B0912C023091E0
:100A1000280223E0230F2D3758F50196A11DB11DA3
:100A2000209328028093290290932A02A0932B02FC
:100A3000B0932C0280912D0290912E02A0912F0252
:100A4000B09130020196A11DB11D80932D029093AB
:100A50002E02A0932F02B0933002BF91AF919F91CD
:100A60008F913F912F910F900FBE0F901F9018956F
:100A700026E8230F0296A11DB11DD2CF1092340299
:100A80001092330248EE53E060E070E0409335028C
:100A90005093360260933702709338028AE092E0F6
:100AA000909332028093310225ED30E030933E0284
:100AB00020933D0224ED30E03093400220933F022A
:100AC00020ED30E0309342022093410221ED30E0EE
:100AD000309344022093430222ED30E030934602EB
:100AE0002093450226ED30E03093480220934702E0
:100AF00010924A0210924B0210924C0210924D0238
:100B00001092D1021092D0024093D2025093D3029D
:100B10006093D4027093D5029093CF028093CE025B
:100B20002DEC30E03093DB022093DA022CEC30E045
:100B30003093DD022093DC0228EC30E03093DF02BA
:100B40002093DE0229EC30E03093E1022093E002B2
:100B50002AEC30E03093E3022093E2022EEC30E006
:100B60003093E5022093E4021092E7021092E8022B
:100B70001092E9021092EA0210926E0310926D0335
:100B800040936F03509370036093710370937203EB
:100B900090936C0380936B0385EC90E090937803C3
:100BA0008093770384EC90E090937A0380937903A9
:100BB00080EC90E090937C0380937B0381EC90E049
:100BC00090937E0380937D0382EC90E0909380036A
:100BD00080937F0386EC90E090938203809381035F
:100BE000109284031092850310928603109287035B
:100BF000109209041092080410920B0410920A0437
:100C000010920D0410920C0461E070E090E080E01E
:100C10000E9478080097E1F09093090480930804FB
:100C200010920B0410920A0420910C0430910D04D0
:100C3000232B11F4FC01108210920D0410920C046D
:100C400067E272E080910804909109040C946209B3
:100C50008091080490910904009711F00E94EF0719
:100C6000109209041092080410920D0410920C04C2
:100C700010920B0410920A040895789484B582604F
:100C800084BD84B5816084BD85B5826085BD85B530
:100C9000816085BD80916E00816080936E001092AE
:100CA0008100809181008260809381008091810029
:100CB00081608093810080918000816080938000BA
:100CC0008091B10084608093B1008091B000816018
:100CD0008093B00080919100826080939100809118
:100CE0009100816080939100809190008160809359
:100CF00090008091A10082608093A1008091A1006A
:100D000081608093A1008091A00081608093A00009
:100D10008091210182608093210180912101816075
:100D20008093210180912001816080932001809136
:100D30007A00846080937A0080917A008260809348
:100D40007A0080917A00816080937A0080917A00A5
:100D5000806880937A001092C1008BE693E00E9435
:100D60005E014CE050E068E172E08BE693E00E94A7
:100D7000A40142E050E065E272E08BE693E00E945D
:100D8000A4018EEC92E00E945E0181E392E00E9459
:100D90005E018DE00E9485018CE00E94850188E063
:100DA0000E94850189E00E9485018AE00E948501F8
:100DB0008BE00E94850184E00E94850185E00E940D
:100DC000850186E00E94850187E00E9485010E94DE
:100DD000EC030E94E0038EEC92E00E941B021816C6
:100DE000190644F58EEC92E00E94F901813429F550
:100DF00060E08BE00E94FD0260E089E00E94FD025D
:100E000061E088E00E94FD0268EB7BE080E090E01A
:100E10000E94AE0361E089E00E94FD0261E08BE088
:100E20000E94FD0268E873E180E090E00E94AE035A
:100E30000E94EC030E94D402CECF8334D9F760E045
:100E400087E00E94FD0260E085E00E94FD0261E013
:100E500084E00E94FD0268EB7BE080E090E00E946D
:100E6000AE0361E085E00E94FD0261E087E00E9440
:100E7000FD0268E873E180E090E00E94AE030E940A
:100E8000E003D8CF8091080490910904009711F0F5
:100E90000C94EF070895EE0FFF1F881F8BBF07907C
:100EA000F691E02D19940F931F93CF93DF93823027
:100EB000910510F482E090E0E0911004F0911104AB
:100EC00030E020E0B0E0A0E0309799F42115310542
:100ED00009F44AC0281B390B24303105D8F58A8122
:100EE0009B816115710589F1FB0193838283FE016A
:100EF00011C0408151810281138148175907E0F0E8
:100F00004817590799F4109761F012960C931297AD
:100F100013961C933296CF01DF91CF911F910F91C1
:100F200008950093100410931104F4CF2115310596
:100F300051F04217530738F0A901DB019A01BD01B6
:100F4000DF01F801C1CFEF01F9CF90931104809335
:100F50001004CDCFFE01E20FF31F81939193225035
:100F6000310939832883D7CF20910E0430910F04A3
:100F7000232B41F4209102023091030230930F049D
:100F800020930E04209100023091010221153105B9
:100F900041F42DB73EB74091040250910502241B45
:100FA000350BE0910E04F0910F04E217F307A0F463
:100FB0002E1B3F0B2817390778F0AC014E5F5F4FAF
:100FC0002417350748F04E0F5F1F50930F044093CE
:100FD0000E04819391939FCFF0E0E0E09CCFCF93FC
:100FE000DF930097E9F0FC01329713821282A091FF
:100FF0001004B0911104ED0130E020E01097A1F44D
:1010000020813181820F931F20910E0430910F04B3
:101010002817390709F061C0F0930F04E0930E041C
:10102000DF91CF910895EA01CE17DF07E8F54A81F5
:101030005B819E0141155105B1F7E901FB83EA830C
:1010400049915991C40FD51FEC17FD0761F48081B8
:1010500091810296840F951FE9019983888382818B
:1010600093819B838A83F0E0E0E012968D919C91BE
:1010700013970097B9F52D913C911197CD010296E8
:10108000820F931F20910E0430910F042817390707
:1010900039F6309751F51092110410921004B09364
:1010A0000F04A0930E04BCCFD383C283408151812F
:1010B000840F951FC817D90761F44E5F5F4F888171
:1010C0009981480F591F518340838A819B81938363
:1010D00082832115310509F0B0CFF0931104E0931C
:1010E00010049ECFFD01DC01C0CF13821282D7CF46
:1010F0004F925F926F927F928F929F92AF92BF9228
:10110000CF92DF92EF92FF920F931F93CF93DF93D3
:101110008C01009799F4CB01DF91CF911F910F9132
:10112000FF90EF90DF90CF90BF90AF909F908F9007
:101130007F906F905F904F900C945307FC01E60FE7
:10114000F71F9C0122503109E217F30708F4AEC0E3
:10115000D901CD91DC911197C617D70720F1C53081
:10116000D10578F0CE0104978617970750F0C61B7B
:10117000D70B2297C193D1936D937C93CF010E949B
:10118000EF07C801DF91CF911F910F91FF90EF9072
:10119000DF90CF90BF90AF909F908F907F906F9097
:1011A0005F904F9008955B01AC1ABD0A4C018C0E04
:1011B0009D1EA0911004B0911104512C412CF12CD2
:1011C000E12C109731F580910E0490910F04881551
:1011D000990509F05CC04616570608F058C0809182
:1011E000000290910102009741F48DB79EB74091A3
:1011F000040250910502841B950BE817F90708F0CB
:1012000055C0F0930F04E0930E04F90171836083DD
:10121000B8CF8D919C91119712966C90129713965E
:101220007C901397A815B90559F56C0142E0C40EDE
:10123000D11CCA14DB0420F1AC014A195B09DA01A4
:101240001296159780F06282738251834083D90190
:101250006D937C93E114F10471F0D7011396FC9324
:10126000EE9312978ECF22968C0F9D1FF9019183DA
:101270008083F301EFCFF0931104E093100481CF4A
:101280004816590608F42C017D01D3019ACFCB01F1
:101290000E9453077C01009749F0AE01B8010E94FB
:1012A0005909C8010E94EF0787016BCF10E000E0E9
:1012B00068CFFB01DC0102C001900D92415050400B
:1012C000D8F70895FB01DC0101900D920020E1F7B1
:1012D000089511E0CAE2D1E000E006C0802FFE01CF
:1012E0000E944B072196011DCB32D10780E00807F1
:0612F000A9F7F894FFCFFE
:1012F600000012048000000000006702A401EA0159
:10130600B4021B02F9010D024D41535445522052BD
:0813160045414459000D0A0095
:00000001FF
