:100000000C943E010C946F010C946F010C946F01E1
:100010000C946F010C946F010C946F010C946F01A0
:100020000C946F010C946F010C946F010C946F0190
:100030000C946F010C946F010C946F010C946F0180
:100040000C946F010C946F010C946F010C946F0170
:100050000C946F010C946F010C946F010C94870940
:100060000C946F010C945D090C9433090C946F018E
:100070000C946F010C946F010C946F010C946F0140
:100080000C946F010C946F010C946F010C946F0130
:100090000C9409090C94DF080C946F010C946F0107
:1000A0000C946F010C946F010C946F010C946F0110
:1000B0000C946F010C946F010C946F010C946F0100
:1000C0000C946F010C946F010C946F010C94B508A3
:1000D0000C948B080C946F010C946F010C946F01BD
:1000E0000C946F010C942A030C9442030C94D109D4
:1000F0000C944A030C9401020C940F040C94980184
:100100000C944F030C94A8020C9438030C9419031C
:100110000C940E040C941D030C9415030C943403DE
:100120000C9446030C9450030C943C030C940F0263
:100130000C945B020C94DE010C9421030C942403B8
:100140000C9454030C94600D0C940F030C947E05D6
:100150000C942E030C94ED010000200023002600D7
:1001600029002C002F0032000001000003010601CD
:10017000090100002100240027002A002D00300082
:10018000330001010000040107010A010000220000
:10019000250028002B002E00310034000201000051
:1001A000050108010B0105050505070508080808F4
:1001B000020202020A0A08080404040401010101FF
:1001C00001010101030303030303030304070707FA
:1001D0000C0C0C0C0C0C0C0C02020202060606069F
:1001E000060606060B0B0B0B0B0B0B0B010210206C
:1001F000200808102040102040800201020108045D
:1002000002010102040810204080804020100804F0
:100210000201800402018040201008040201080449
:10022000020101020408102040800102040810208D
:10023000408000000A0B02090C0D0E0807030401A0
:1002400000000000000000000000000000000000AE
:10025000000000000000000000000000000012117B
:10026000100000000000000000000000000000007E
:100270000000000000000000D109600D11241FBE25
:10028000CFEFD1E2DEBFCDBF00E00CBF25E0AAEF8B
:10029000B2E001C01D92A230B207E1F712E0A0E087
:1002A000B2E0E2E0F0E200E00BBF02C007900D9286
:1002B000AA3FB107D9F711E0CDE3D1E000E006C0D5
:1002C00021970109802FFE010E94C20DCC33D10776
:1002D00080E00807A9F70E946B0A0C94EF0F0C94BA
:1002E0000000FC01A089B18982E08C93A485B585CA
:1002F0001C92A685B7858FEC8C93108EA489B58946
:1003000086E08C93A289B3898C9180618C93A289B9
:10031000B3898C9188608C93A289B3898C91806811
:100320008C930288F389E02D80818F7D80830895EE
:10033000AF92BF92CF92DF92EF92FF920F931F93F3
:10034000CF93DF936C017B018B01040F151FEB0131
:100350005E01AE18BF08C017D10759F06991D601E8
:10036000ED91FC910190F081E02DC6011995892B4A
:1003700079F7C501DF91CF911F910F91FF90EF9019
:10038000DF90CF90BF90AF900895FC01A089B18914
:100390008C91A689B78982FD0FC09C91818D8F5F5A
:1003A0008F73228D821749F0A18DAE0FBF2FB11D23
:1003B0005D969C93818F08958C910895FC01538DD7
:1003C000448D252F30E0842F90E0821B930B54172F
:1003D00010F0CF96089501970895FC01918D828DBC
:1003E000981761F0A28DAE0FBF2FB11D5D968C9155
:1003F000928D9F5F9F73928F90E008958FEF9FEF94
:100400000895FC01918D828D981731F0828DE80F4F
:10041000F11D858D90E008958FEF9FEF0895FC0109
:10042000918D228D892F90E0805C9F4F821B9109D6
:100430008F739927089589E093E00E940F0221E0CD
:10044000892B09F420E0822F089586EA93E00E9428
:100450000F0221E0892B09F420E0822F089583E424
:1004600094E00E940F0221E0892B09F420E0822F02
:100470000895FC01A48DA80FB92FB11DA35ABF4F39
:100480002C91848D90E001968F739927848FA68993
:10049000B7892C93A089B1898C91837080648C93E7
:1004A000938D848D981306C00288F389E02D808196
:1004B0008F7D80830895EF92FF920F931F93CF93C8
:1004C000DF93EC0181E0888F9B8D8C8D98131AC08F
:1004D000E889F989808185FF15C09FB7F894EE8976
:1004E000FF896083E889F9898081837080648083D3
:1004F0009FBF81E090E0DF91CF911F910F91FF901E
:10050000EF900895F62E0B8D10E00F5F1F4F0F73C5
:100510001127E02E8C8D8E110CC00FB607FCFACF80
:10052000E889F989808185FFF5CFCE010E943902E3
:10053000F1CFEB8DEC0FFD2FF11DE35AFF4FF08251
:100540009FB7F8940B8FEA89FB8980818062CFCFB7
:10055000CF93DF93EC01888D8823B9F0AA89BB89FA
:10056000E889F9898C9185FD03C0808186FD0DC0E5
:100570000FB607FCF7CF8C9185FFF2CF808185FF06
:10058000EDCFCE010E943902E9CFDF91CF910895DE
:1005900080E090E0892B29F00E942F0281110E94B7
:1005A000000080E090E0892B29F00E942502811153
:1005B0000E94000080E090E0892B29F00E941B023D
:1005C00081110E94000080E090E0892B49F080E0DA
:1005D00090E0892B29F00E94000081110C9400000A
:1005E00008958150823108F05AC0E82FF0E0882742
:1005F000E350FD4F8F4F0C94C20D1D0321030F03D9
:10060000150319034F0324032A032E03340338036D
:100610003C03420346034F034A03500354038091B3
:1006200080008F77809380000895809180008F7D77
:10063000F9CF80918000877FF5CF84B58F7784BD17
:10064000089584B58F7DFBCF8091B0008F77809324
:10065000B00008958091B0008F7DF9CF8091900017
:100660008F77809390000895809190008F7DF9CFCF
:1006700080919000877FF5CF8091A0008F77809345
:10068000A00008958091A0008F7DF9CF8091A000F7
:10069000877FF5CF809120018F7780932001089587
:1006A000809120018F7DF9CF80912001877FF5CF48
:1006B0001F93CF93DF93282F30E0F901EE5CFD4FBD
:1006C0008491F901E451FE4FD491F901EA55FE4FAE
:1006D000C491CC23A9F0162F81110E94F102EC2FB6
:1006E000F0E0EE0FFF1FE457FE4FA591B4918FB7D6
:1006F000F894EC91111108C0D095DE23DC938FBFE4
:10070000DF91CF911F910895DE2BF8CFCF93DF9328
:1007100090E0FC01E451FE4F24918A559E4FFC016C
:1007200084918823D1F090E0880F991FFC01EE5846
:10073000FE4FA591B491FC01E457FE4FC591D491B1
:1007400061110EC09FB7F8948C91E22FE0958E2333
:100750008C932881E223E8839FBFDF91CF91089596
:100760008FB7F894EC91E22BEC938FBFF6CF3FB7A5
:10077000F8948091FF0290910003A0910103B09141
:10078000020326B5A89B05C02F3F19F00196A11DB5
:10079000B11D3FBFBA2FA92F982F8827BC01CD01CB
:1007A000620F711D811D911D42E0660F771F881F2A
:1007B000991F4A95D1F708958F929F92AF92BF9259
:1007C000CF92DF92EF92FF924B015C010E94B70340
:1007D0006B017C010E94B7036C197D098E099F098A
:1007E000683E734081059105A8F321E0821A9108C3
:1007F000A108B10888EEC80E83E0D81EE11CF11CE8
:1008000081149104A104B10429F7FF90EF90DF90C7
:10081000CF90BF90AF909F908F900895089590E0F3
:1008200080E0089560E084E00E94580360E085E085
:100830000E94580360E087E00C94580360E088E071
:100840000E94580360E089E00E94580360E08BE05A
:100850000C945803CF93DF93EC0160E08E810E94EB
:10086000580361E08E810E94580360E08E810E94EF
:1008700058038BE891E00197F1F7DF91CF9108954C
:10088000CF92DF92EF92FF920F931F93CF93DF935C
:100890006C017C0187E0E80EF11CD0E0C0E0062F7F
:1008A00010E0B8010C2E02C0759567950A94E2F726
:1008B0006170F70181917F010E9458032196C43035
:1008C000D10579F7C601DF91CF911F910F91FF906C
:1008D000EF90DF90CF900C942A04CF92DF92EF92AA
:1008E000FF920F931F93CF93DF93EC01F62E642FAB
:1008F0008C810E9458038D818F3F19F060E00E9427
:1009000058030F2D10E08F8584FF25C06E0187E00E
:10091000C80ED11CF12CE12CB8010E2C02C075952B
:1009200067950A94E2F76170F60181916F010E9468
:100930005803FFEFEF1AFF0A88E0E816F10461F7A9
:10094000CE01DF91CF911F910F91FF90EF90DF903B
:10095000CF900C942A04B80184E0759567958A9528
:10096000E1F7CE010E9440046F2DCE01DF91CF91BF
:100970001F910F91FF90EF90DF90CF900C94400467
:1009800040E0682F80EE94E00C946D0481E00E94BA
:10099000C0048BE39FE10197F1F70895CF93DF93B4
:1009A000823029F49091EF0498609093EF04809343
:1009B000F3041092F40480E48093F50480E18093C2
:1009C000F60480E58093F70461E08091E4040E94DE
:1009D00086038091E5048F3F19F061E00E94860351
:1009E00061E08091E6040E948603C0EED4E09E019F
:1009F000205E34408091EF0484FD0BC084E090E0E1
:100A000021962817390744F461E08E810E948603FD
:100A1000EECF88E090E0F4CF8BE39DE00197F1F713
:100A200060E08091E4040E94580360E08091E60455
:100A30000E9458038091E5048F3F19F060E00E9406
:100A400058038091EF0484FD34C063E080EE94E0AD
:100A50000E944004CBE4D6E4CE010197F1F763E0B5
:100A600080EE94E00E9440042197F1F763E080EE6D
:100A700094E00E94400483E592E00197F1F762E080
:100A800080EE94E00E9440048091EF0480620E9416
:100A9000C00484E08093F0048CE00E94C0040E94B3
:100AA000C60482E08093F10486E0DF91CF910C943C
:100AB000C00480620E94C0048BE496E40197F1F7C1
:100AC0008091EF0480620E94C00483E592E0019768
:100AD000F1F78091EF0480620E94C004D5CF90911D
:100AE000F304691710F06FEF690FE62FF0E0E052A2
:100AF000FB4F9489890F80680C94C00441E00E94E8
:100B00006D0481E090E008950F931F93CF93DF93DE
:100B10008B01877028E0829FC001112480640E94AD
:100B2000C004E801085F1F4F699180EE94E00E94C5
:100B30007E05C017D107C1F7DF91CF911F910F91AB
:100B40000895FB0101900020E9F73197AF01461BA2
:100B5000570BDC01ED91FC910280F381E02D19949B
:100B60008F929F92AF92BF92CF92DF92EF92FF92BD
:100B7000CF93DF93CDB7DEB7A1970FB6F894DEBF62
:100B80000FBECDBF6C01990FEE08FF08F7FE40C005
:100B900041E06DE280EE94E00E946D04222733274D
:100BA000A9012C193D094E095F0919A2CE018196B0
:100BB0007C019AE0892E912CA12CB12CCA01B9019B
:100BC000A50194010E94A00D605DF70162937F0171
:100BD000211531054105510589F790E080E03097F6
:100BE00029F0BF0180EE94E00E94A1050196A19634
:100BF0000FB6F894DEBF0FBECDBFDF91CF91FF904F
:100C0000EF90DF90CF90BF90AF909F908F9008951E
:100C1000A701960119A2CE0181967C018AE0882E57
:100C2000912CA12CB12CCA01B901A50194010E94FB
:100C3000A00D605DF70162937F012115310541052B
:100C4000510589F790E080E0309789F2BF0180EE8E
:100C500094E00E94A105CBCF0F931F93CF93DF9316
:100C6000EC010E94A1058C016EEB72E0CE010E94A6
:100C7000A105800F911FDF91CF911F910F910895D2
:100C8000FC0180819181009711F00C94660E08950B
:100C90000F931F93CF93DF93EC0188819981009785
:100CA00059F02A813B812617370730F081E0DF9128
:100CB000CF911F910F9108958B016F5F7F4F0E941D
:100CC000EF0E009759F0998388831B830A832C8148
:100CD0003D81232B59F7FC011082E8CF80E0E7CF5C
:100CE000EF92FF920F931F93CF93DF931F921F9268
:100CF000CDB7DEB78C0169831A82FC01E480F580F0
:100D0000FFEFEF1AFF0AB7010E944806882381F01F
:100D1000F8012081318184819581BE016F5F7F4F11
:100D2000820F931F0E94D90FF801F582E48281E0BF
:100D30000F900F90DF91CF911F910F91FF90EF9047
:100D40000895EF92FF920F931F93CF93DF93EC01DF
:100D50007B018A01BA010E944806288139818111EC
:100D600014C02115310519F0C9010E94660E1982BF
:100D700018821D821C821B821A82CE01DF91CF91C4
:100D80001F910F91FF90EF9008951D830C83B70181
:100D9000C9010E94D90FF1CFFC0111821082138288
:100DA00012821582148250E040E060EC72E00C94F4
:100DB000A1066F927F928F929F92AF92BF92CF9235
:100DC000DF92EF92FF920F931F93CF93DF93CDB7F4
:100DD000DEB7A4970FB6F894DEBF0FBECDBF6DB6D9
:100DE0007EB686EA93E00E940F021816190644F5B3
:100DF00086EA93E00E94ED018134F1F560E08BE03A
:100E00000E94580360E089E00E94580361E088E096
:100E10000E94580368EB7BE080E090E00E94DC03D6
:100E200061E089E00E94580361E08BE00E94580372
:100E300068EB7BE080E090E00E94DC030E941E04EF
:100E4000CE014F960E94CC0683E494E00E940F02EC
:100E5000181619060CF04FC083E494E00E94ED01CF
:100E6000682FCE014F960E9470066AE070E080E025
:100E700090E00E94DC03E8CF833411F7EFE3F2E067
:100E80008491E9EFF1E00491E3EBF1E014911111A9
:100E900023C060E087E00E94580360E085E00E9484
:100EA000580361E084E00E94580368EB7BE080E037
:100EB00090E00E94DC0361E085E00E94580361E05D
:100EC00087E00E94580368EB7BE080E090E00E949E
:100ED000DC030E941204B4CF81110E94F102E12FC1
:100EE000F0E0EE0FFF1FE85AFE4FA591B491EC9190
:100EF0000E2379F2A5CF8BA19CA1892B09F4E1C027
:100F0000EF8DF8A18081882309F4DBC061EC72E0E9
:100F100089E093E00E942C064BA15CA16F8D78A123
:100F200089E093E00E9498016EEB72E089E093E023
:100F30000E94A1051A8E198E1C8E1B8E1E8E1D8E70
:100F40006F8D78A16115710531F04BA15CA1CE01C7
:100F500049960E94A1068DB69EB61C8A1B8A1E8ADF
:100F60001D8A188E1F8A698D7A8D6115710531F081
:100F70004D8D5E8DCE0143960E94A106CF88D88C00
:100F80008601015011098DB79EB78C199D090FB6C6
:100F9000F8949EBF0FBE8DBFEDB7FEB731967F01AF
:100FA000C114D10451F06B897C89A801CF010E9442
:100FB000E00FF701E00FF11F1082CE010D960E94A5
:100FC000CC06CE0107960E94CC06CE0101960E9467
:100FD000CC06F70180818035D1F581818B33B9F55D
:100FE0005701F2E0AF0EB11C02E010E00C151D0538
:100FF00074F5F50161915F010F5F1F4F6B3311F5C0
:101000005701A00EB11E0C151D050CF5F5016191DF
:101010005F010F5F1F4F6B3381F40E0D1F1DC80161
:101020008E199F098C159D0594F4F80161918F012B
:10103000CE0101960E947006F2CFCE0107960E9463
:101040007006E1CFCE010D960E947006CFCF8D8540
:101050009E85009709F453C00E94640D70930803A5
:10106000609307038F819885009709F44CC00E9414
:10107000640D709306036093050389819A8100973C
:1010800009F445C00E94640D709304036093030348
:10109000CE0101960E944006CE0107960E944006AE
:1010A000CE010D960E944006CE0143960E94400656
:1010B0000FB6F8949EBE0FBE8DBECE0149960E941B
:1010C0004006CE014F960E9440060FB6F8947EBEB1
:1010D0000FBE6DBEA4960FB6F894DEBF0FBECDBF97
:1010E000DF91CF911F910F91FF90EF90DF90CF9004
:1010F000BF90AF909F908F907F906F90089560E029
:1011000070E0CB01ABCF60E070E0CB01B2CF60E02C
:1011100070E0CB01B9CF1F920F920FB60F9211243E
:101120000BB60F922F933F934F935F936F937F93E1
:101130008F939F93AF93BF93EF93FF9389E093E0D7
:101140000E943902FF91EF91BF91AF919F918F91D2
:101150007F916F915F914F913F912F910F900BBEB7
:101160000F900FBE0F901F9018951F920F920FB601
:101170000F9211240BB60F922F933F934F935F93CF
:101180006F937F938F939F93AF93BF93EF93FF934F
:1011900089E093E00E94C501FF91EF91BF91AF916B
:1011A0009F918F917F916F915F914F913F912F917F
:1011B0000F900BBE0F900FBE0F901F9018951F92AF
:1011C0000F920FB60F9211240BB60F922F933F93ED
:1011D0004F935F936F937F938F939F93AF93BF933F
:1011E000EF93FF9386EA93E00E943902FF91EF911B
:1011F000BF91AF919F918F917F916F915F914F912F
:101200003F912F910F900BBE0F900FBE0F901F902C
:1012100018951F920F920FB60F9211240BB60F92D2
:101220002F933F934F935F936F937F938F939F93EE
:10123000AF93BF93EF93FF9386EA93E00E94C501BB
:10124000FF91EF91BF91AF919F918F917F916F919E
:101250005F914F913F912F910F900BBE0F900FBE5A
:101260000F901F9018951F920F920FB60F92112496
:101270000BB60F922F933F934F935F936F937F9390
:101280008F939F93AF93BF93EF93FF9383E494E087
:101290000E943902FF91EF91BF91AF919F918F9181
:1012A0007F916F915F914F913F912F910F900BBE66
:1012B0000F900FBE0F901F9018951F920F920FB6B0
:1012C0000F9211240BB60F922F933F934F935F937E
:1012D0006F937F938F939F93AF93BF93EF93FF93FE
:1012E00083E494E00E94C501FF91EF91BF91AF911B
:1012F0009F918F917F916F915F914F913F912F912E
:101300000F900BBE0F900FBE0F901F9018951F925D
:101310000F920FB60F9211242F933F938F939F93A9
:10132000AF93BF938091FB029091FC02A091FD02CC
:10133000B091FE023091FA0223E0230F2D3758F5C9
:101340000196A11DB11D2093FA028093FB02909398
:10135000FC02A093FD02B093FE028091FF029091E7
:101360000003A0910103B09102030196A11DB11DDC
:101370008093FF0290930003A0930103B0930203B4
:10138000BF91AF919F918F913F912F910F900FBE81
:101390000F901F90189526E8230F0296A11DB11DEE
:1013A000D2CFE9E0F3E01382128248EE53E060E02E
:1013B00070E0448355836683778384EA92E0918367
:1013C000808325ED30E03587248724ED30E03787B2
:1013D000268720ED30E0318B208B21ED30E0338B00
:1013E000228B22ED30E0358B248B26ED30E0378BDD
:1013F000268B118E128E138E148EE6EAF3E0138282
:1014000012824483558366837783918380832DEC96
:1014100030E0358724872CEC30E03787268728ECAE
:1014200030E0318B208B29EC30E0338B228B2AEC9F
:1014300030E0358B248B2EEC30E0378B268B118EF1
:10144000128E138E148EE3E4F4E01382128244832E
:101450005583668377839183808385EC90E09587BD
:10146000848784EC90E09787868780EC90E0918B6E
:10147000808B81EC90E0938B828B82EC90E0958B5B
:10148000848B86EC90E0978B868B118E128E138E58
:10149000148E88EF94E00E94CC06E0EEF4E0138214
:1014A000128286EB92E09183808386E184838FEFC2
:1014B000858387E1868388E1878389E180878AE164
:1014C00081878BE182871386148615861686178698
:1014D00081E00C94CE04789484B5826084BD84B598
:1014E000816084BD85B5826085BD85B5816085BD1F
:1014F00080916E00816080936E00109281008091D7
:10150000810082608093810080918100816080935E
:101510008100809180008160809380008091B10083
:1015200084608093B1008091B00081608093B000AE
:101530008091910082608093910080919100816000
:1015400080939100809190008160809390008091C1
:10155000A10082608093A1008091A10081608093AE
:10156000A1008091A00081608093A0008091210162
:10157000826080932101809121018160809321010B
:101580008091200181608093200180917A008460A5
:1015900080937A0080917A00826080937A008091B3
:1015A0007A00816080937A0080917A0080688093CD
:1015B0007A001092C10083E494E00E9471016AEC09
:1015C00072E083E494E00E942C0686EA93E00E9495
:1015D000710189E093E00E9471016AEC72E089E098
:1015E00093E00E942C0660E08DE00E94860361E09B
:1015F00088E00E94860361E089E00E94860361E042
:101600008AE00E94860361E08BE00E94860361E02D
:1016100084E00E94860361E085E00E94860361E029
:1016200086E00E94860361E087E00E9486030E94B4
:101630001E040E94120482E00E94CE0480E1682E03
:10164000712C91E1892E912CC2E1D0E003E110E0F0
:1016500025E1E22EF12C68EE73E080E090E00E943C
:10166000DC030E94D9064090070350900803411400
:10167000510409F0EEC0C0909802D090990282EF18
:10168000C8168FEFD8060CF4C7C082E00E94CE04C3
:1016900062E372E081E00E9484056BE272E082E026
:1016A0000E94840564E272E083E00E9484056DE19B
:1016B00072E084E00E94840560E08C2D0E946F053A
:1016C00061E080EE94E00E947E05D090960260E09A
:1016D0008D2D0E946F0562E080EE94E00E947E05F1
:1016E00061E08C2D0E946F0563E080EE94E00E9423
:1016F0007E0561E08D2D0E946F0564E080EE94E030
:101700000E947E0566E172E085E00E9484056FE03C
:1017100072E086E00E94840567E072E087E00E9444
:10172000840560E072E088E00E948405C090940225
:1017300060E08C2D0E946F0565E080EE94E00E94D1
:101740007E05D090920260E08D2D0E946F0566E0CC
:1017500080EE94E00E947E0561E08C2D0E946F0572
:1017600067E080EE94E00E947E0561E08D2D0E948E
:101770006F0568E080EE94E00E947E0560E0809155
:1017800090020E946F0567ED72E080EE94E00E9487
:10179000A10561E0809190020E946F0561EE72E008
:1017A00080EE94E00E94A1058091980290919902A8
:1017B000019790939902809398028091960290915C
:1017C00097020197909397028093960280919402DA
:1017D0009091950201979093950280939402809145
:1017E00092029091930201979093930280939202B8
:1017F0008091900290919102019790939102809331
:10180000900262E370E080E090E00E94DC030E94BE
:10181000D9060E94C6042FCF709299026092980256
:101820009092970280929602D0939502C093940270
:101830001093930200939202F0929102E092900230
:1018400068EE73E080E090E00E94DC030E94C80232
:1018500002CFA0900503B0900603C0900303D09080
:10186000040360E572E081E00E94840560E080E0AE
:101870000E946F0561E080EE94E00E947E0560E0CA
:1018800081E00E946F056BEE72E080EE94E00E94B2
:10189000A10569E472E084E00E94840561E080E0D3
:1018A0000E946F0564E080EE94E00E947E0561E096
:1018B00081E00E946F05C5010E94B00561E472E0FD
:1018C00082E00E94840560E087E00E946F0562E08C
:1018D00080EE94E00E947E0560E088E00E946F0543
:1018E000C2010E94B00569E372E083E00E948405B2
:1018F00061E087E00E946F0563E080EE94E00E9463
:101900007E0561E088E00E946F05C6010E94B00577
:1019100068EE73E080E090E00E94DC03A090070393
:10192000B0900803C0909802D090990280EFC8163A
:101930008FEFD8060CF470CF82E00E94CE0469E8E5
:1019400072E081E00E94840562E872E082E00E9419
:1019500084056BE772E083E00E94840564E772E02F
:1019600084E00E94840560E08C2D0E946F0561E098
:1019700080EE94E00E947E05D090960260E08D2D6E
:101980000E946F0562E080EE94E00E947E0561E0B7
:101990008C2D0E946F0563E080EE94E00E947E052E
:1019A00061E08D2D0E946F0564E080EE94E00E945E
:1019B0007E056DE672E085E00E94840566E672E0D1
:1019C00086E00E9484056EE572E087E00E9484054F
:1019D00067E572E088E00E948405C090940260E0B0
:1019E0008C2D0E946F0565E080EE94E00E947E05DC
:1019F000D090920260E08D2D0E946F0566E080EE2F
:101A000094E00E947E0561E08C2D0E946F0567E0E6
:101A100080EE94E00E947E0561E08D2D0E946F05AE
:101A200068E080EE94E00E947E0560E08091900284
:101A30000E946F05C5010E94B00561E0809190028F
:101A40000E946F056EEE72E080EE94E00E94A105A8
:101A500080919802909199020197909399028093B6
:101A60009802809196029091970201979093970225
:101A700080939602809194029091950201979093A1
:101A80009502809394028091920290919302019723
:101A90009093930280939202809190029091910290
:101AA0000197909391028093900262E370E080E04E
:101AB00090E00E94DC030E94D9060E94C60432CF47
:101AC00088EF94E00C9440061F93FC019927882727
:101AD000BC01E89411911032E9F3193010F01E3076
:101AE000C8F31B3251F01D3249F4689406C00E94BD
:101AF0008B0D610F711D811D911D119110531A30B5
:101B0000B0F33EF490958095709561957F4F8F4F1F
:101B10009F4F1F910895592F482F372F262F660F5B
:101B2000771F881F991F660F771F881F991F620FE5
:101B3000731F841F951F660F771F881F991F0895B5
:101B4000A1E21A2EAA1BBB1BFD010DC0AA1FBB1FC1
:101B5000EE1FFF1FA217B307E407F50720F0A21B33
:101B6000B30BE40BF50B661F771F881F991F1A94A0
:101B700069F760957095809590959B01AC01BD01CA
:101B8000CF010895EE0FFF1F881F8BBF0790F691BE
:101B9000E02D19940F931F93CF93DF93823091051B
:101BA00010F482E090E0E0910005F091010530E052
:101BB00020E0B0E0A0E0309799F42115310509F458
:101BC0004AC0281B390B24303105D8F58A819B8106
:101BD0006115710589F1FB0193838283FE0111C0B8
:101BE000408151810281138148175907E0F048175D
:101BF000590799F4109761F012960C931297139667
:101C00001C933296CF01DF91CF911F910F910895D0
:101C10000093000510930105F4CF2115310551F013
:101C20004217530738F0A901DB019A01BD01DF011A
:101C3000F801C1CFEF01F9CF909301058093000522
:101C4000CDCFFE01E20FF31F819391932250310912
:101C500039832883D7CF2091FE043091FF04232BB2
:101C600041F420919C0230919D023093FF04209317
:101C7000FE0420919A0230919B022115310541F416
:101C80002DB73EB740919E0250919F02241B350B09
:101C9000E091FE04F091FF04E217F307A0F42E1B7D
:101CA0003F0B2817390778F0AC014E5F5F4F2417C0
:101CB000350748F04E0F5F1F5093FF044093FE041A
:101CC000819391939FCFF0E0E0E09CCFCF93DF939F
:101CD0000097E9F0FC01329713821282A09100056F
:101CE000B0910105ED0130E020E01097A1F42081D2
:101CF0003181820F931F2091FE043091FF04281739
:101D0000390709F061C0F093FF04E093FE04DF910E
:101D1000CF910895EA01CE17DF07E8F54A815B818C
:101D20009E0141155105B1F7E901FB83EA83499111
:101D30005991C40FD51FEC17FD0761F48081918183
:101D40000296840F951FE90199838883828193818C
:101D50009B838A83F0E0E0E012968D919C9113972B
:101D60000097B9F52D913C911197CD010296820F04
:101D7000931F2091FE043091FF042817390739F68C
:101D8000309751F51092010510920005B093FF04B1
:101D9000A093FE04BCCFD383C28340815181840FC2
:101DA000951FC817D90761F44E5F5F4F88819981ED
:101DB000480F591F518340838A819B81938382837B
:101DC0002115310509F0B0CFF0930105E09300052E
:101DD0009ECFFD01DC01C0CF13821282D7CF4F927C
:101DE0005F926F927F928F929F92AF92BF92CF92AB
:101DF000DF92EF92FF920F931F93CF93DF938C01AB
:101E0000009799F4CB01DF91CF911F910F91FF9033
:101E1000EF90DF90CF90BF90AF909F908F907F908A
:101E20006F905F904F900C94CA0DFC01E60FF71F66
:101E30009C0122503109E217F30708F4AEC0D90122
:101E4000CD91DC911197C617D70720F1C530D10588
:101E500078F0CE0104978617970750F0C61BD70B72
:101E60002297C193D1936D937C93CF010E94660E0C
:101E7000C801DF91CF911F910F91FF90EF90DF90FC
:101E8000CF90BF90AF909F908F907F906F905F901A
:101E90004F9008955B01AC1ABD0A4C018C0E9D1E3B
:101EA000A0910005B0910105512C412CF12CE12CA1
:101EB000109731F58091FE049091FF0488159905E3
:101EC00009F05CC04616570608F058C080919A0287
:101ED00090919B02009741F48DB79EB740919E026E
:101EE00050919F02841B950BE817F90708F055C025
:101EF000F093FF04E093FE04F90171836083B8CF8F
:101F00008D919C91119712966C90129713967C90DC
:101F10001397A815B90559F56C0142E0C40ED11C00
:101F2000CA14DB0420F1AC014A195B09DA011296EC
:101F3000159780F06282738251834083D9016D933B
:101F40007C93E114F10471F0D7011396FC93EE93A6
:101F500012978ECF22968C0F9D1FF901918380835B
:101F6000F301EFCFF0930105E093000581CF481610
:101F7000590608F42C017D01D3019ACFCB010E94B0
:101F8000CA0D7C01009749F0AE01B8010E94D00F44
:101F9000C8010E94660E87016BCF10E000E068CF99
:101FA000FB01DC0102C001900D9241505040D8F776
:101FB0000895FB01DC0101900D920020E1F70895E6
:101FC000FB01DC014150504048F001900D9200208F
:101FD000C9F701C01D9241505040E0F7089511E04B
:101FE000CDE3D1E000E006C0802FFE010E94C20DCB
:101FF0002196011DCE33D10780E00807A9F7F89498
:02200000FFCF10
:102002000110090313051E0C01021A191C1F1F1EC1
:102012001D1B170713011F1F001E1F1F000310089F
:102022000B13071F1001121819140F1F1F1C19136D
:1020320007000F171B1D1E1E101F0E151B150E1F4E
:102042001F1F1F1E1D0B171F1F1F110A040A111F1E
:102052001F11151117171F0110090B13071F0C0170
:10206200021A191C1F1F1F1F1F1F0713011F1F000A
:102072001E1F1F000310080B13071F1001121A194D
:102082001C1F1F1F1C191307001F1F1F1F1F1E10BD
:10209200150013001200110010000000020580005C
:1020A200000000005B029801DE01A8020F02ED01B0
:1020B2000102000000007E0598010F040E040D0AC3
:1020C20000526563696269646F004D415354455221
:1020D20020524541445900205061727175656F204C
:1020E2000078204C6C656E6F207800333200646992
:0A20F20073706F6E69626C65730015
:00000001FF
