:100000000C942B010C945C010C945C010C945C012D
:100010000C945C010C945C010C945C010C945C01EC
:100020000C945C010C945C010C945C010C945C01DC
:100030000C945C010C945C010C945C010C945C01CC
:100040000C945C010C945C010C945C010C945C01BC
:100050000C945C010C945C010C945C010C94B00455
:100060000C945C010C9486040C945C040C945C016C
:100070000C945C010C945C010C945C010C945C018C
:100080000C945C010C945C010C945C010C945C017C
:100090000C9432040C9408040C945C010C945C01E4
:1000A0000C945C010C945C010C945C010C945C015C
:1000B0000C945C010C945C010C945C010C945C014C
:1000C0000C945C010C945C010C945C010C94DE03B8
:1000D0000C94B4030C945C010C945C010C945C01D2
:1000E0000C945C010C9481020C94E7010C941C02AA
:1000F0000C9426020C9422020C94EF010C94FC0147
:100100000C94F6010C942C020C94A3020C940002A3
:100110000C9418020C94EB010C94D5010C943C0344
:100120000C940E020C9495020C9414020C9472021E
:100130000C94CE060C94F3010C94D0010C940A029A
:100140000C94FA040C94EF020C94060200000A0BC3
:1001500002090C0D0E080703040100000000000056
:10016000000000000000000000000000000000008F
:10017000000000000000000012111000000000004C
:10018000000000000000000000000000000000006F
:10019000000000002200250028002B002E00310066
:1001A000340002010000050108010B0100002100DC
:1001B000240027002A002D00300033000101000038
:1001C000040107010A0105050505070508080808D7
:1001D000020202020A0A08080404040401010101DF
:1001E00001010101030303030303030304070707DA
:1001F0000C0C0C0C0C0C0C0C02020202060606067F
:10020000060606060B0B0B0B0B0B0B0B010210204B
:10021000200808102040102040800201020108043C
:1002200002010102040810204080804020100804D0
:100230000201800402018040201008040201080429
:10024000020101020408102040800102040810206D
:100250004080FA04CE0611241FBECFEFD1E2DEBFEC
:10026000CDBF00E00CBF24E0A4E4B2E001C01D92C9
:10027000AF32B207E1F712E0A0E0B2E0EEE0F2E167
:1002800000E00BBF02C007900D92A434B107D9F76C
:1002900011E0CAE2D1E000E006C021970109802FF9
:1002A000FE010E94D706C932D10780E00807A9F7EE
:1002B0000E94F9050C94F5080C940000FC01A0893B
:1002C000B18982E08C93A485B5851C92A685B785FB
:1002D0008FEC8C93108EA489B58986E08C93A289CB
:1002E000B3898C9180618C93A289B3898C91886049
:1002F0008C93A289B3898C9180688C930288F3894E
:10030000E02D80818F7D8083089590E0FC01E45F83
:10031000FD4F24918A539E4FFC018491882399F0CC
:1003200090E0880F991FFC01E455FE4FA591B49110
:10033000FC01EE56FE4F859194918FB7F894EC91A5
:10034000E22BEC938FBF0895382FE8E5F1E084911C
:10035000E8E1F2E02491E2EDF1E09491992309F4CF
:1003600035C0882311F181508231F8F4E82FF0E094
:100370008827E254FE4F8F4F0C94D706EF01F3010C
:10038000D001E701EB01D501F601FC0100020602F4
:100390000A020E0214021802D5011C0222022602D1
:1003A000809180008F7780938000E92FF0E0EE0F3E
:1003B000FF1FEE56FE4FA591B4918FB7F894EC91C4
:1003C000311148C020952E232C938FBF0895809122
:1003D00080008F7DE8CF80918000877FE4CF84B557
:1003E0008F7784BDE2CF84B58F7DFBCF8091B00045
:1003F0008F778093B000D9CF8091B0008F7DF9CFF7
:10040000809190008F7780939000CFCF8091900063
:100410008F7DF9CF80919000877FF5CF8091A000EC
:100420008F778093A000C1CF8091A0008F7DF9CFFE
:100430008091A000877FF5CF809120018F778093F6
:100440002001B3CF809120018F7DF9CF80912001D1
:10045000877FF5CF2E2BB8CFAF92BF92CF92DF928E
:10046000EF92FF920F931F93CF93DF936C017B0169
:100470008B01040F151FEB015E01AE18BF08C017FA
:10048000D10759F06991D601ED91FC910190F0816D
:10049000E02DC6011995892B79F7C501DF91CF9120
:1004A0001F910F91FF90EF90DF90CF90BF90AF9092
:1004B0000895FC01A089B1898C91A689B78982FD34
:1004C0000FC09C91818D8F5F8F73228D821749F0B1
:1004D000A18DAE0FBF2FB11D5D969C93818F0895A6
:1004E0008C910895FC01538D448D252F30E0842F8D
:1004F00090E0821B930B541710F0CF96089501974C
:100500000895FC01918D828D981761F0A28DAE0F38
:10051000BF2FB11D5D968C91928D9F5F9F73928FBF
:1005200090E008958FEF9FEF0895FC01918D828DEB
:10053000981731F0828DE80FF11D858D90E00895B8
:100540008FEF9FEF0895FC01918D228D892F90E010
:10055000805C9F4F821B91098F73992708958EE4C9
:1005600092E00E94A30221E0892B09F420E0822F6F
:1005700008958BEE92E00E94A30221E0892B09F4FA
:1005800020E0822F089588E893E00E94A30221E0F2
:10059000892B09F420E0822F0895FC01A48DA80F77
:1005A000B92FB11DA35ABF4F2C91848D90E00196B5
:1005B0008F739927848FA689B7892C93A089B189D5
:1005C0008C91837080648C93938D848D981306C076
:1005D0000288F389E02D80818F7D80830895EF92DA
:1005E000FF920F931F93CF93DF93EC0181E0888FED
:1005F0009B8D8C8D98131AC0E889F989808185FFBD
:1006000015C09FB7F894EE89FF896083E889F9895E
:1006100080818370806480839FBF81E090E0DF9160
:10062000CF911F910F91FF90EF900895F62E0B8DB3
:1006300010E00F5F1F4F0F731127E02E8C8D8E116E
:100640000CC00FB607FCFACFE889F989808185FFD5
:10065000F5CFCE010E94CD02F1CFEB8DEC0FFD2F37
:10066000F11DE35AFF4FF0829FB7F8940B8FEA8990
:10067000FB8980818062CFCFCF93DF93EC01888D9F
:100680008823B9F0AA89BB89E889F9898C9185FD0D
:1006900003C0808186FD0DC00FB607FCF7CF8C919B
:1006A00085FFF2CF808185FFEDCFCE010E94CD0284
:1006B000E9CFDF91CF91089580E090E0892B29F078
:1006C0000E94C30281110E94000080E090E0892B0B
:1006D00029F00E94B90281110E94000080E090E0A0
:1006E000892B29F00E94AF0281110E94000080E056
:1006F00090E0892B49F080E090E0892B29F00E945E
:10070000000081110C94000008953FB7F894809187
:10071000490290914A02A0914B02B0914C0226B539
:10072000A89B05C02F3F19F00196A11DB11D3FBF29
:10073000BA2FA92F982F8827BC01CD01620F711DF8
:10074000811D911D42E0660F771F881F991F4A95F2
:10075000D1F70895FB0101900020E9F73197AF012F
:10076000461B570B0C942C021F920F920FB60F9240
:1007700011240BB60F922F933F934F935F936F9378
:100780007F938F939F93AF93BF93EF93FF938EE4E9
:1007900092E00E94CD02FF91EF91BF91AF919F91A6
:1007A0008F917F916F915F914F913F912F910F901A
:1007B0000BBE0F900FBE0F901F9018951F920F92B7
:1007C0000FB60F9211240BB60F922F933F934F93B6
:1007D0005F936F937F938F939F93AF93BF93EF93A9
:1007E000FF938EE492E00E945902FF91EF91BF9136
:1007F000AF919F918F917F916F915F914F913F91B9
:100800002F910F900BBE0F900FBE0F901F90189559
:100810001F920F920FB60F9211240BB60F922F93C7
:100820003F934F935F936F937F938F939F93AF9378
:10083000BF93EF93FF938BEE92E00E94CD02FF9166
:10084000EF91BF91AF919F918F917F916F915F9148
:100850004F913F912F910F900BBE0F900FBE0F90B5
:100860001F9018951F920F920FB60F9211240BB67E
:100870000F922F933F934F935F936F937F938F9339
:100880009F93AF93BF93EF93FF938BEE92E00E9401
:100890005902FF91EF91BF91AF919F918F917F91FD
:1008A0006F915F914F913F912F910F900BBE0F90E1
:1008B0000FBE0F901F9018951F920F920FB60F92B8
:1008C00011240BB60F922F933F934F935F936F9327
:1008D0007F938F939F93AF93BF93EF93FF9388E89A
:1008E00093E00E94CD02FF91EF91BF91AF919F9154
:1008F0008F917F916F915F914F913F912F910F90C9
:100900000BBE0F900FBE0F901F9018951F920F9265
:100910000FB60F9211240BB60F922F933F934F9364
:100920005F936F937F938F939F93AF93BF93EF9357
:10093000FF9388E893E00E945902FF91EF91BF91E5
:10094000AF919F918F917F916F915F914F913F9167
:100950002F910F900BBE0F900FBE0F901F90189508
:100960001F920F920FB60F9211242F933F938F93E4
:100970009F93AF93BF938091450290914602A091BF
:100980004702B09148023091440223E0230F2D37F3
:1009900058F50196A11DB11D209344028093450294
:1009A00090934602A0934702B09348028091490277
:1009B00090914A02A0914B02B0914C020196A11D68
:1009C000B11D8093490290934A02A0934B02B093C9
:1009D0004C02BF91AF919F918F913F912F910F90BA
:1009E0000FBE0F901F90189526E8230F0296A11DA9
:1009F000B11DD2CF109251021092500248EE53E036
:100A000060E070E0409352025093530260935402AE
:100A1000709355028AE092E090934F0280934E02C9
:100A200025ED30E030935B0220935A0224ED30E054
:100A300030935D0220935C0220ED30E030935F0242
:100A400020935E0221ED30E030936102209360023A
:100A500022ED30E0309363022093620226ED30E015
:100A6000309365022093640210926702109268022C
:100A70001092690210926A021092EE021092ED0238
:100A80004093EF025093F0026093F1027093F202F0
:100A90009093EC028093EB022DEC30E03093F8025F
:100AA0002093F7022CEC30E03093FA022093F90205
:100AB00028EC30E03093FC022093FB0229EC30E07C
:100AC0003093FE022093FD022AEC30E030930003C5
:100AD0002093FF022EEC30E03093020320930103B9
:100AE000109204031092050310920603109207035C
:100AF00010928B0310928A0340938C0350938D03C2
:100B000060938E0370938F0390938903809388037F
:100B100085EC90E0909395038093940384EC90E0AF
:100B2000909397038093960380EC90E090939903C1
:100B30008093980381EC90E090939B0380939A03B9
:100B400082EC90E090939D0380939C0386EC90E070
:100B500090939F0380939E031092A1031092A2038F
:100B60001092A3031092A40310922604109225045D
:100B7000109228041092270410922A04109229043B
:100B800061E070E090E080E00E9404080097E1F0EE
:100B90009093260480932504109228041092270431
:100BA0002091290430912A04232B11F4FC01108296
:100BB00010922A041092290467E272E080912504C1
:100BC000909126040C94EE088091250490912604BF
:100BD000009711F00E947B071092260410922504C2
:100BE00010922A04109229041092280410922704CB
:100BF0000895789484B5826084BD84B5816084BD95
:100C000085B5826085BD85B5816085BD80916E00AA
:100C1000816080936E0010928100809181008260DB
:100C20008093810080918100816080938100809118
:100C300080008160809380008091B1008460809307
:100C4000B1008091B00081608093B00080919100EC
:100C500082608093910080919100816080939100E7
:100C6000809190008160809390008091A1008260CB
:100C70008093A1008091A10081608093A100809168
:100C8000A00081608093A000809121018260809308
:100C900021018091210181608093210180912001B7
:100CA00081608093200180917A00846080937A0033
:100CB00080917A00826080937A0080917A008160CE
:100CC00080937A0080917A00806880937A001092F5
:100CD000C10088E893E00E945E0168E172E088E864
:100CE00093E00E94AA0365E272E088E893E00E9424
:100CF000AA038BEE92E00E945E018EE492E00E94D5
:100D00005E018DE00E9485018CE00E94850180914A
:100D10004D02811140C081E00E94A40168E272E0AE
:100D20008BEE92E00E94AA0360E372E08EE492E010
:100D30000E94AA0368E272E088E893E00E94AA0396
:100D40000E9485034B015C0188EEC82E83E0D82EFB
:100D5000E12CF12C0E948503681979098A099B0905
:100D6000683E734081059105A8F321E0C21AD108BD
:100D7000E108F10888EE880E83E0981EA11CB11CE2
:100D8000C114D104E104F10429F780E00E94A40118
:100D900081E080934D020E945C03B9CF80912504CD
:100DA00090912604009711F00C947B070895EE0FA4
:100DB000FF1F881F8BBF0790F691E02D19940F93AA
:100DC0001F93CF93DF938230910510F482E090E07F
:100DD000E0912D04F0912E0430E020E0B0E0A0E09E
:100DE000309799F42115310509F44AC0281B390BB5
:100DF00024303105D8F58A819B816115710589F10F
:100E0000FB0193838283FE0111C0408151810281E5
:100E1000138148175907E0F04817590799F41097BC
:100E200061F012960C93129713961C933296CF0191
:100E3000DF91CF911F910F91089500932D0410938E
:100E40002E04F4CF2115310551F04217530738F025
:100E5000A901DB019A01BD01DF01F801C1CFEF015A
:100E6000F9CF90932E0480932D04CDCFFE01E20F95
:100E7000F31F819391932250310939832883D7CF6F
:100E800020912B0430912C04232B41F42091020259
:100E90003091030230932C0420932B042091000204
:100EA000309101022115310541F42DB73EB7409133
:100EB000040250910502241B350BE0912B04F091A4
:100EC0002C04E217F307A0F42E1B3F0B2817390759
:100ED00078F0AC014E5F5F4F2417350748F04E0F96
:100EE0005F1F50932C0440932B04819391939FCFC9
:100EF000F0E0E0E09CCFCF93DF930097E9F0FC01B6
:100F0000329713821282A0912D04B0912E04ED012C
:100F100030E020E01097A1F420813181820F931FEF
:100F200020912B0430912C042817390709F061C057
:100F3000F0932C04E0932B04DF91CF910895EA0104
:100F4000CE17DF07E8F54A815B819E014115510507
:100F5000B1F7E901FB83EA8349915991C40FD51F89
:100F6000EC17FD0761F4808191810296840F951F33
:100F7000E90199838883828193819B838A83F0E04E
:100F8000E0E012968D919C9113970097B9F52D9101
:100F90003C911197CD010296820F931F20912B0453
:100FA00030912C042817390739F6309751F51092F3
:100FB0002E0410922D04B0932C04A0932B04BCCFCC
:100FC000D383C28340815181840F951FC817D907ED
:100FD00061F44E5F5F4F88819981480F591F51839B
:100FE00040838A819B81938382832115310509F097
:100FF000B0CFF0932E04E0932D049ECFFD01DC01D1
:10100000C0CF13821282D7CF4F925F926F927F929E
:101010008F929F92AF92BF92CF92DF92EF92FF9208
:101020000F931F93CF93DF938C01009799F4CB011B
:10103000DF91CF911F910F91FF90EF90DF90CF90B4
:10104000BF90AF909F908F907F906F905F904F90E8
:101050000C94DF06FC01E60FF71F9C0122503109BA
:10106000E217F30708F4AEC0D901CD91DC911197D6
:10107000C617D70720F1C530D10578F0CE01049707
:101080008617970750F0C61BD70B2297C193D193B1
:101090006D937C93CF010E947B07C801DF91CF91B4
:1010A0001F910F91FF90EF90DF90CF90BF90AF9086
:1010B0009F908F907F906F905F904F9008955B010D
:1010C000AC1ABD0A4C018C0E9D1EA0912D04B0914E
:1010D0002E04512C412CF12CE12C109731F58091EC
:1010E0002B0490912C048815990509F05CC04616D4
:1010F000570608F058C080910002909101020097B5
:1011000041F48DB79EB74091040250910502841BB3
:10111000950BE817F90708F055C0F0932C04E093FD
:101120002B04F90171836083B8CF8D919C91119745
:1011300012966C90129713967C901397A815B90588
:1011400059F56C0142E0C40ED11CCA14DB0420F135
:10115000AC014A195B09DA011296159780F0628298
:10116000738251834083D9016D937C93E114F10420
:1011700071F0D7011396FC93EE9312978ECF2296BF
:101180008C0F9D1FF90191838083F301EFCFF093C2
:101190002E04E0932D0481CF4816590608F42C0143
:1011A0007D01D3019ACFCB010E94DF067C0100971D
:1011B00049F0AE01B8010E94E508C8010E947B0712
:1011C00087016BCF10E000E068CFFB01DC0102C0BB
:1011D00001900D9241505040D8F70895FB01DC0179
:1011E00001900D920020E1F7089511E0CAE2D1E0EC
:1011F00000E006C0802FFE010E94D7062196011D47
:0E120000CB32D10780E00807A9F7F894FFCFA2
:10120E0000002F04800000000000EF022C0272028A
:10121E003C03A302810295024D4153544552205284
:10122E0045414459000D0A004C45443B343B3100C6
:10123E005265736572766163696F6E20656E76694D
:04124E006164610076
:00000001FF
