:100000000C942C010C945D010C945D010C945D0129
:100010000C945D010C945D010C945D010C945D01E8
:100020000C945D010C945D010C945D010C945D01D8
:100030000C945D010C94BE030C945D010C945D0165
:100040000C945D010C945D010C945D010C945D01B8
:100050000C945D010C945D010C945D010C94BB0447
:100060000C945D010C9485040C945B040C945D016C
:100070000C945D010C945D010C945D010C945D0188
:100080000C945D010C945D010C945D010C945D0178
:100090000C945D010C945D010C945D010C945D0168
:1000A0000C945D010C945D010C945D010C945D0158
:1000B0000C945D010C945D010C945D010C945D0148
:1000C0000C945D010C945D010C945D010C945D0138
:1000D0000C945D010C945D010C945D010C945D0128
:1000E0000C945D010C9405050C9401030C94E20240
:1000F0000C940B030C948C010C9407030C94DE02FB
:100100000C94C3020C9415030C94AF010C942D07AE
:100110000C94F9020C94DA020C94EF020C94E902AC
:100120000C94BD010C9419030C940F030C9442021F
:100130000C94C8020C949B010C94E6020C94FD02F2
:100140000C94F5010C945F010C94F30200000A0B6F
:1001500002090C0D0E080703040100000000000056
:10016000000000000000000000000000000000008F
:10017000000000000000000012111000000000004C
:10018000000000000000000000000000000000006F
:1001900000000200002200250028002B002E003164
:1001A00000340002010000050108010B01000021DC
:1001B00000240027002A002D003000330001010038
:1001C00000040107010A01050505050705080808DF
:1001D00008020202020A0A080804040404010101D8
:1001E00001010101010303030303030303040707E0
:1001F000070C0C0C0C0C0C0C0C020202020606067E
:1002000006060606060B0B0B0B0B0B0B0B01021065
:100210002020080810204010204080020102010820
:1002200004020101020408102040808040201008D0
:100230000402018004020180402010080402010829
:100240000402010102040810204080010204081089
:100250002040800005052D0711241FBECFEFD1E2FD
:10026000DEBFCDBF00E00CBF23E0A6E3B2E001C0DB
:100270001D92A434B207E1F712E0A0E0B2E0E0EE94
:10028000F2E100E00BBF02C007900D92A633B10768
:10029000D9F711E0CBE2D1E000E006C021970109D7
:1002A000802FFE010E943107CA32D10780E0080783
:1002B000A9F70E9440050C945E090C940000AF92CF
:1002C000BF92CF92DF92EF92FF920F931F93CF9343
:1002D000DF936C017B018B01040F151FEB015E01A5
:1002E000AE18BF08C017D10759F06991D601ED913A
:1002F000FC910190F081E02DC6011995892B79F7C9
:10030000C501DF91CF911F910F91FF90EF90DF908A
:10031000CF90BF90AF900895FC01538D448D252F51
:1003200030E0842F90E0821B930B541710F0CF968F
:10033000089501970895FC01918D828D981761F0C1
:10034000A28DAE0FBF2FB11D5D968C91928D9F5FD8
:100350009F73928F90E008958FEF9FEF0895FC01B7
:10036000918D828D981731F0828DE80FF11D858D6A
:1003700090E008958FEF9FEF0895FC01918D228DFD
:10038000892F90E0805C9F4F821B91098F73992782
:1003900008958DE992E00E94BD0121E0892B09F4C6
:1003A00020E0822F0895FC01A48DA80FB92FB11D64
:1003B000A35ABF4F2C91848D90E001968F7399279B
:1003C000848FA689B7892C93A089B1898C91837079
:1003D00080648C93938D848D981306C00288F38972
:1003E000E02D80818F7D80830895EF92FF920F939F
:1003F0001F93CF93DF93EC0181E0888F9B8D8C8DD1
:1004000098131AC0E889F989808185FF15C09FB7C4
:10041000F894EE89FF896083E889F9898081837087
:10042000806480839FBF81E090E0DF91CF911F9136
:100430000F91FF90EF900895F62E0B8D10E00F5F57
:100440001F4F0F731127E02E8C8D8E110CC00FB62D
:1004500007FCFACFE889F989808185FFF5CFCE01C5
:100460000E94D301F1CFEB8DEC0FFD2FF11DE35A6C
:10047000FF4FF0829FB7F8940B8FEA89FB89808148
:100480008062CFCFCF93DF93EC01888D8823B9F0C2
:10049000AA89BB89E889F9898C9185FD03C080818F
:1004A00086FD0DC00FB607FCF7CF8C9185FFF2CF0C
:1004B000808185FFEDCFCE010E94D301E9CFDF918E
:1004C000CF91089580E090E0892B29F00E94C90126
:1004D00081110E94000080E090E0892B49F080E0CB
:1004E00090E0892B29F00E94000081110E940000F9
:1004F00080E090E0892B49F080E090E0892B29F0A2
:100500000E94000081110E94000080E090E0892B91
:1005100049F080E090E0892B29F00E9400008111D1
:100520000C9400000895282F30E0F901E45BFE4FA1
:100530009491F901E35FFD4F449129533E4FF90136
:100540002491222309F435C0992311F1915092315D
:10055000F8F4E92FF0E08827EF54FD4F8F4F0C940B
:100560003107E202E602C302DA02DE02C802E90251
:10057000EF02F302F902FD02010307030B03C802B5
:100580000F0315031903809180008F7780938000FB
:10059000E22FF0E0EE0FFF1FED56FE4FA591B49154
:1005A0008FB7F894EC91611148C040954E234C935D
:1005B0008FBF0895809180008F7DE8CF809180006B
:1005C000877FE4CF84B58F7784BDE2CF84B58F7DFC
:1005D000FBCF8091B0008F778093B000D9CF80910E
:1005E000B0008F7DF9CF809190008F77809390003D
:1005F000CFCF809190008F7DF9CF80919000877F41
:10060000F5CF8091A0008F778093A000C1CF80911B
:10061000A0008F7DF9CF8091A000877FF5CF8091DA
:1006200020018F7780932001B3CF809120018F7DAF
:10063000F9CF80912001877FF5CF4E2BB8CF3FB700
:10064000F8948091540290915502A0915602B09175
:10065000570226B5A89B05C02F3F19F00196A11D92
:10066000B11D3FBFBA2FA92F982F8827BC01CD01FC
:10067000620F711D811D911D42E0660F771F881F5B
:10068000991F4A95D1F7089542E050E069E172E080
:100690008DE992E00C945F01CF93DF93FC01019010
:1006A0000020E9F73197AF01481B590BBC018DE9D8
:1006B00092E00E945F01EC010E9444038C0F9D1F99
:1006C000DF91CF910895FC0180819181009711F015
:1006D0000C94D50708950F931F93CF93DF93EC01EC
:1006E00088819981009759F02A813B812617370725
:1006F00030F081E0DF91CF911F910F9108958B0130
:100700006F5F7F4F0E945E08009759F0998388833E
:100710001B830A832C813D81232B59F7FC01108216
:10072000E8CF80E0E7CFEF92FF920F931F93CF9334
:10073000DF93EC017B018A01BA010E946B032881DF
:100740003981811114C02115310519F0C9010E94A8
:10075000D507198218821D821C821B821A82CE0143
:10076000DF91CF911F910F91FF90EF9008951D831E
:100770000C83B701C9010E944809F1CF1F920F9263
:100780000FB60F9211240BB60F922F933F934F93F6
:100790005F936F937F938F939F93AF93BF93EF93E9
:1007A000FF938091590290915A02A0915B02B091FF
:1007B0005C02892B8A2B8B2BD1F19091580280916E
:1007C00000008927809300008091590290915A027D
:1007D000A0915B02B0915C02181619061A061B065E
:1007E0009CF48091590290915A02A0915B02B091C1
:1007F0005C020197A109B1098093590290935A02B2
:10080000A0935B02B0935C02FF91EF91BF91AF9117
:100810009F918F917F916F915F914F913F912F9118
:100820000F900BBE0F900FBE0F901F9018958091E8
:100830000002E2E9F1E0E4919FEF90930002E230E0
:10084000E9F040F4EE2389F0E13091F060E00E949D
:100850009302DACFE43049F110F1E530B9F7909125
:1008600073009D7F90937300F1CF10926E00EECFD6
:1008700090916F009D7F90936F00E8CF90917000F2
:100880009D7F9093700091E09093B0009091B100A3
:10089000987F94609093B1001092B300D7CF90915D
:1008A00071009D7F90937100D1CF909172009D7FD8
:1008B00090937200CBCF1F920F920FB60F9211241C
:1008C0000BB60F922F933F934F935F936F937F934A
:1008D0008F939F93AF93BF93EF93FF938DE992E034
:1008E0000E94D301FF91EF91BF91AF919F918F91A2
:1008F0007F916F915F914F913F912F910F900BBE20
:100900000F900FBE0F901F9018951F920F920FB669
:100910000F9211240BB60F922F938F939F93EF9307
:10092000FF93E091AD02F091AE028081E091B302BD
:10093000F091B40282FD1DC090818091B6028F5F5C
:100940008F732091B702821741F0E091B602F0E078
:10095000E356FD4F958F8093B602FF91EF919F91E3
:100960008F912F910F900BBE0F900FBE0F901F9085
:1009700018958081F2CF1F920F920FB60F9211241B
:100980002F933F938F939F93AF93BF938091500288
:1009900090915102A0915202B091530230914F02B6
:1009A00023E0230F2D3758F50196A11DB11D20938B
:1009B0004F028093500290935102A0935202B09341
:1009C00053028091540290915502A0915602B09129
:1009D00057020196A11DB11D8093540290935502B8
:1009E000A0935602B0935702BF91AF919F918F9100
:1009F0003F912F910F900FBE0F901F90189526E8F2
:100A0000230F0296A11DB11DD2CFEDE9F2E01382B2
:100A1000128288EE93E0A0E0B0E084839583A68301
:100A2000B7838BE092E09183808385EC90E095879B
:100A3000848784EC90E09787868780EC90E0918BA8
:100A4000808B81EC90E0938B828B82EC90E0958B95
:100A5000848B86EC90E0978B868B118E128E138E92
:100A6000148EEAE3F3E0118210821382128215825F
:100A7000148250E040E06BE172E0CF010C949303EC
:100A8000CF93DF93CDB7DEB72C970FB6F894DEBFC8
:100A90000FBECDBF789484B5826084BD84B581607B
:100AA00084BD85B5826085BD85B5816085BD809139
:100AB0006E00816080936E001092810080918100B1
:100AC00082608093810080918100816080938100A9
:100AD000809180008160809380008091B10084606B
:100AE0008093B1008091B00081608093B0008091CC
:100AF0009100826080939100809191008160809349
:100B00009100809190008160809390008091A1007D
:100B100082608093A1008091A10081608093A100F8
:100B20008091A00081608093A0008091210182606B
:100B30008093210180912101816080932101809126
:100B4000200181608093200180917A0084608093ED
:100B50007A0080917A00826080937A0080917A0096
:100B6000816080937A0080917A00806880937A0017
:100B70001092C100E091AD02F091AE0282E080835C
:100B8000E091A902F091AA021082E091AB02F091EB
:100B9000AC028FEC80831092B502E091B102F0912B
:100BA000B20286E08083E091AF02F091B0028081D2
:100BB00080618083E091AF02F091B0028081886013
:100BC0008083E091AF02F091B002808180688083E1
:100BD000E091AF02F091B00280818F7D808306E1C9
:100BE00010E0802FF801E35FFD4F9491F801E95385
:100BF000FE4F2491222399F030E0220F331FF90198
:100C0000E355FE4FA591B491F901ED56FE4F2591A4
:100C100034912FB7F894EC91E92BEC932FBF60E05F
:100C20000E9493020F5F1F4F06331105D1F6EAE1D0
:100C3000F2E02491E4EDF1E084918823C9F090E0A2
:100C4000880F991FFC01E355FE4F45915491FC011B
:100C5000ED56FE4FA591B4919FB7F894FA018081AB
:100C60002095822380838C91E22FE823EC939FBF11
:100C7000EE24E394F12C18861F821A8619861C86AE
:100C80001B8650E040E06BE172E0CE0107960E94C7
:100C900093038DE992E00E94BD01181619060CF02D
:100CA00043C08DE992E00E949B0189831A820B85E3
:100CB0001C850F5F1F4FB801CE0107960E946B0382
:100CC000882369F02F8138858B859C85BE016F5FF5
:100CD0007F4F820F931F0E9448091C870B870E9439
:100CE0001F032B013C019AE0892E912CA12CB12CE1
:100CF0000E941F036419750986099709683E7340AD
:100D000081059105A8F3F1E08F1A9108A108B108B7
:100D100028EE420E23E0521E611C711C81149104C6
:100D2000A104B10429F7B5CF8B859C85892B09F4E3
:100D30008DC0EF81F8858081882309F487C08CE11C
:100D400092E00E944C034B855C856F8178858DE92C
:100D500092E00E945F010E9444031A8219821C8261
:100D60001B821E821D826F8178856115710531F0AD
:100D70004B855C85CE0101960E949303CDB6DEB60D
:100D800087E292E00E944C034D815E8169817A8105
:100D90008DE992E00E945F010E9444030D811E8153
:100DA0004801F1E08F1A91088DB79EB7801B910B17
:100DB0000FB6F8949EBF0FBE8DBFEDB7FEB731964C
:100DC0005F0101151105F1F069817A81A401CF015C
:100DD0000E944F09F501E80DF91D1082EDE5F2E0E2
:100DE000D5011496CD018A199B098017910750F4FB
:100DF0008D91813321F4F182E0823296F3CF11821A
:100E00001082FBCF8DE5A82E82E0B82E16E1F50109
:100E1000819191915F0161E0019709F060E0812F7C
:100E20000E9493021F5F163391F70FB6F894DEBE4F
:100E30000FBECDBECE0101960E94630350E040E09C
:100E40006BE172E0CE0107960E949303CE010796F4
:100E50000E9463030E9462020ECF8AE393E00C9427
:100E60006303EE0FFF1F881F8BBF0790F691E02DE5
:100E700019940F931F93CF93DF938230910510F451
:100E800082E090E0E0914203F091430330E020E003
:100E9000B0E0A0E0309799F42115310509F44AC07B
:100EA000281B390B24303105D8F58A819B816115C7
:100EB000710589F1FB0193838283FE0111C040819A
:100EC00051810281138148175907E0F048175907EB
:100ED00099F4109761F012960C93129713961C9345
:100EE0003296CF01DF91CF911F910F91089500931A
:100EF000420310934303F4CF2115310551F04217FB
:100F0000530738F0A901DB019A01BD01DF01F801A7
:100F1000C1CFEF01F9CF9093430380934203CDCF2C
:100F2000FE01E20FF31F819391932250310939831F
:100F30002883D7CF2091400330914103232B41F4E4
:100F40002091030230910402309341032093400327
:100F500020910102309102022115310541F42DB793
:100F60003EB74091050250910602241B350BE091DB
:100F70004003F0914103E217F307A0F42E1B3F0B4F
:100F80002817390778F0AC014E5F5F4F24173507FB
:100F900048F04E0F5F1F50934103409340038193ED
:100FA00091939FCFF0E0E0E09CCFCF93DF93009749
:100FB000E9F0FC01329713821282A0914203B091B2
:100FC0004303ED0130E020E01097A1F4208131814E
:100FD000820F931F20914003309141032817390756
:100FE00009F061C0F0934103E0934003DF91CF919A
:100FF0000895EA01CE17DF07E8F54A815B819E017B
:1010000041155105B1F7E901FB83EA8349915991F3
:10101000C40FD51FEC17FD0761F480819181029602
:10102000840F951FE90199838883828193819B8333
:101030008A83F0E0E0E012968D919C9113970097DF
:10104000B9F52D913C911197CD010296820F931F16
:1010500020914003309141032817390739F6309722
:1010600051F51092430310924203B0934103A093B1
:101070004003BCCFD383C28340815181840F951F2D
:10108000C817D90761F44E5F5F4F88819981480F77
:10109000591F518340838A819B81938382832115C9
:1010A000310509F0B0CFF0934303E09342039ECFA4
:1010B000FD01DC01C0CF13821282D7CF4F925F9225
:1010C0006F927F928F929F92AF92BF92CF92DF9258
:1010D000EF92FF920F931F93CF93DF938C010097B2
:1010E00099F4CB01DF91CF911F910F91FF90EF9079
:1010F000DF90CF90BF90AF909F908F907F906F9038
:101100005F904F900C943907FC01E60FF71F9C018C
:1011100022503109E217F30708F4AEC0D901CD918E
:10112000DC911197C617D70720F1C530D10578F0AB
:10113000CE0104978617970750F0C61BD70B22974E
:10114000C193D1936D937C93CF010E94D507C801C1
:10115000DF91CF911F910F91FF90EF90DF90CF9093
:10116000BF90AF909F908F907F906F905F904F90C7
:1011700008955B01AC1ABD0A4C018C0E9D1EA09116
:101180004203B0914303512C412CF12CE12C1097D8
:1011900031F580914003909141038815990509F03C
:1011A0005CC04616570608F058C080910102909125
:1011B0000202009741F48DB79EB74091050250910D
:1011C0000602841B950BE817F90708F055C0F09349
:1011D0004103E0934003F90171836083B8CF8D919F
:1011E0009C91119712966C90129713967C9013977E
:1011F000A815B90559F56C0142E0C40ED11CCA14FA
:10120000DB0420F1AC014A195B09DA01129615974B
:1012100080F06282738251834083D9016D937C9305
:10122000E114F10471F0D7011396FC93EE93129739
:101230008ECF22968C0F9D1FF90191838083F3013D
:10124000EFCFF0934303E093420381CF4816590652
:1012500008F42C017D01D3019ACFCB010E943907FC
:101260007C01009749F0AE01B8010E943F09C80116
:101270000E94D50787016BCF10E000E068CFFB012B
:10128000DC0102C001900D9241505040D8F7089502
:10129000FB01DC0101900D920020E1F70895FB01B4
:1012A000DC014150504048F001900D920020C9F7F8
:1012B00001C01D9241505040E0F7089511E0CBE28B
:1012C000D1E000E006C0802FFE010E943107219688
:1012D000011DCC32D10780E00807A9F7F894FFCFB1
:1012E000FF00004403800000000000F5015F018C56
:1012F000014202BD019B01AF010D0A005265636905
:101300006269646F3A2000496E7465727072657428
:06131000616E646F000035
:00000001FF
